{
  "contractName": "APIFeed",
  "abi": [
    {
      "inputs": [],
      "payable": false,
      "stateMutability": "nonpayable",
      "type": "constructor"
    },
    {
      "anonymous": false,
      "inputs": [
        {
          "indexed": true,
          "internalType": "bytes32",
          "name": "id",
          "type": "bytes32"
        }
      ],
      "name": "ChainlinkCancelled",
      "type": "event"
    },
    {
      "anonymous": false,
      "inputs": [
        {
          "indexed": true,
          "internalType": "bytes32",
          "name": "id",
          "type": "bytes32"
        }
      ],
      "name": "ChainlinkFulfilled",
      "type": "event"
    },
    {
      "anonymous": false,
      "inputs": [
        {
          "indexed": true,
          "internalType": "bytes32",
          "name": "id",
          "type": "bytes32"
        }
      ],
      "name": "ChainlinkRequested",
      "type": "event"
    },
    {
      "constant": true,
      "inputs": [],
      "name": "price",
      "outputs": [
        {
          "internalType": "uint256",
          "name": "",
          "type": "uint256"
        }
      ],
      "payable": false,
      "stateMutability": "view",
      "type": "function"
    },
    {
      "constant": true,
      "inputs": [],
      "name": "getPrice",
      "outputs": [
        {
          "internalType": "uint256",
          "name": "",
          "type": "uint256"
        }
      ],
      "payable": false,
      "stateMutability": "view",
      "type": "function"
    },
    {
      "constant": false,
      "inputs": [],
      "name": "requestBTCPrice",
      "outputs": [
        {
          "internalType": "bytes32",
          "name": "requestId",
          "type": "bytes32"
        }
      ],
      "payable": false,
      "stateMutability": "nonpayable",
      "type": "function"
    },
    {
      "constant": false,
      "inputs": [
        {
          "internalType": "bytes32",
          "name": "_requestId",
          "type": "bytes32"
        },
        {
          "internalType": "uint256",
          "name": "_price",
          "type": "uint256"
        }
      ],
      "name": "fulfill",
      "outputs": [],
      "payable": false,
      "stateMutability": "nonpayable",
      "type": "function"
    }
  ],
  "bytecode": "0x6080604052600160045534801561001557600080fd5b506100397370d1f773a9f81c852087b77f6ae6d3032b02d2ab6100c860201b60201c565b73bf87377162512f8098f78f055dfd2adac34cbb47600760006101000a81548173ffffffffffffffffffffffffffffffffffffffff021916908373ffffffffffffffffffffffffffffffffffffffff1602179055507f3662353765336665306439303462613438643133376233393335306337383932600881905550662386f26fc1000060098190555061010c565b80600260006101000a81548173ffffffffffffffffffffffffffffffffffffffff021916908373ffffffffffffffffffffffffffffffffffffffff16021790555050565b6111eb8061011b6000396000f3fe608060405234801561001057600080fd5b506004361061004c5760003560e01c80634357855e1461005157806398d5fdca14610089578063a035b1fe146100a7578063bda5757b146100c5575b600080fd5b6100876004803603604081101561006757600080fd5b8101908080359060200190929190803590602001909291905050506100e3565b005b61009161020a565b6040518082815260200191505060405180910390f35b6100af610214565b6040518082815260200191505060405180910390f35b6100cd61021a565b6040518082815260200191505060405180910390f35b816005600082815260200190815260200160002060009054906101000a900473ffffffffffffffffffffffffffffffffffffffff1673ffffffffffffffffffffffffffffffffffffffff163373ffffffffffffffffffffffffffffffffffffffff161461019b576040517f08c379a000000000000000000000000000000000000000000000000000000000815260040180806020018281038252602881526020018061118f6028913960400191505060405180910390fd5b6005600082815260200190815260200160002060006101000a81549073ffffffffffffffffffffffffffffffffffffffff0219169055807f7cc135e0cebb02c3480ae5d74d377283180a2601f8f644edf7987b009316c63a60405160405180910390a281600681905550505050565b6000600654905090565b60065481565b600061022461104f565b61023860085430634357855e60e01b610441565b905061029c6040518060400160405280600381526020017f67657400000000000000000000000000000000000000000000000000000000008152506040518060a00160405280607b8152602001611114607b9139836104729092919063ffffffff16565b606060026040519080825280602002602001820160405280156102d357816020015b60608152602001906001900390816102be5790505b5090506040518060400160405280601f81526020017f5265616c74696d652043757272656e63792045786368616e67652052617465008152508160008151811061031957fe5b60200260200101819052506040518060400160405280601081526020017f352e2045786368616e67652052617465000000000000000000000000000000008152508160018151811061036757fe5b60200260200101819052506103bc6040518060400160405280600481526020017f706174680000000000000000000000000000000000000000000000000000000081525082846104a59092919063ffffffff16565b61040b6040518060400160405280600581526020017f74696d65730000000000000000000000000000000000000000000000000000008152506402540be400846105229092919063ffffffff16565b61043a600760009054906101000a900473ffffffffffffffffffffffffffffffffffffffff1683600954610555565b9250505090565b61044961104f565b61045161104f565b6104688585858461080d909392919063ffffffff16565b9150509392505050565b6104898284608001516108bd90919063ffffffff16565b6104a08184608001516108bd90919063ffffffff16565b505050565b6104bc8284608001516108bd90919063ffffffff16565b6104c983608001516108e2565b60008090505b815181101561050f576105028282815181106104e757fe5b602002602001015185608001516108bd90919063ffffffff16565b80806001019150506104cf565b5061051d83608001516108f0565b505050565b6105398284608001516108bd90919063ffffffff16565b6105508184608001516108fe90919063ffffffff16565b505050565b600030600454604051602001808373ffffffffffffffffffffffffffffffffffffffff1673ffffffffffffffffffffffffffffffffffffffff1660601b815260140182815260200192505050604051602081830303815290604052805190602001209050600454836060018181525050836005600083815260200190815260200160002060006101000a81548173ffffffffffffffffffffffffffffffffffffffff021916908373ffffffffffffffffffffffffffffffffffffffff160217905550807fb5e6e01e79f91267dc17b4e6314d5d4d03593d2ceee0fbb452b750bd70ea5af960405160405180910390a2600260009054906101000a900473ffffffffffffffffffffffffffffffffffffffff1673ffffffffffffffffffffffffffffffffffffffff16634000aea0858461068d876109a2565b6040518463ffffffff1660e01b8152600401808473ffffffffffffffffffffffffffffffffffffffff1673ffffffffffffffffffffffffffffffffffffffff16815260200183815260200180602001828103825283818151815260200191508051906020019080838360005b838110156107145780820151818401526020810190506106f9565b50505050905090810190601f1680156107415780820380516001836020036101000a031916815260200191505b50945050505050602060405180830381600087803b15801561076257600080fd5b505af1158015610776573d6000803e3d6000fd5b505050506040513d602081101561078c57600080fd5b81019080805190602001909291905050506107f2576040517f08c379a00000000000000000000000000000000000000000000000000000000081526004018080602001828103825260238152602001806110f16023913960400191505060405180910390fd5b60016004600082825401925050819055508090509392505050565b61081561104f565b6108258560800151610100610ba9565b508385600001818152505082856020019073ffffffffffffffffffffffffffffffffffffffff16908173ffffffffffffffffffffffffffffffffffffffff16815250508185604001907bffffffffffffffffffffffffffffffffffffffffffffffffffffffff191690817bffffffffffffffffffffffffffffffffffffffffffffffffffffffff191681525050849050949350505050565b6108ca8260038351610bfd565b6108dd8183610d4290919063ffffffff16565b505050565b6108ed816004610d64565b50565b6108fb816007610d64565b50565b7fffffffffffffffffffffffffffffffffffffffffffffffff0000000000000000811215610935576109308282610d86565b61099e565b67ffffffffffffffff8113156109545761094f8282610df4565b61099d565b6000811261096d5761096882600083610bfd565b61099c565b61099b826001837fffffffffffffffffffffffffffffffffffffffffffffffffffffffffffffffff03610bfd565b5b5b5b5050565b6060600360009054906101000a900473ffffffffffffffffffffffffffffffffffffffff1673ffffffffffffffffffffffffffffffffffffffff166340429946905060e01b60008084600001518560200151866040015187606001516001896080015160000151604051602401808973ffffffffffffffffffffffffffffffffffffffff1673ffffffffffffffffffffffffffffffffffffffff1681526020018881526020018781526020018673ffffffffffffffffffffffffffffffffffffffff1673ffffffffffffffffffffffffffffffffffffffff168152602001857bffffffffffffffffffffffffffffffffffffffffffffffffffffffff19167bffffffffffffffffffffffffffffffffffffffffffffffffffffffff1916815260200184815260200183815260200180602001828103825283818151815260200191508051906020019080838360005b83811015610b0c578082015181840152602081019050610af1565b50505050905090810190601f168015610b395780820380516001836020036101000a031916815260200191505b509950505050505050505050604051602081830303815290604052907bffffffffffffffffffffffffffffffffffffffffffffffffffffffff19166020820180517bffffffffffffffffffffffffffffffffffffffffffffffffffffffff83818316178352505050509050919050565b610bb16110bc565b600060208381610bbd57fe5b0614610bd65760208281610bcd57fe5b06602003820191505b81836020018181525050604051808452600081528281016020016040525082905092915050565b60178111610c2a57610c248160058460ff16901b60ff161784610e4090919063ffffffff16565b50610d3d565b60ff8111610c6c57610c4f601860058460ff16901b1784610e4090919063ffffffff16565b50610c6681600185610e609092919063ffffffff16565b50610d3c565b61ffff8111610caf57610c92601960058460ff16901b1784610e4090919063ffffffff16565b50610ca981600285610e609092919063ffffffff16565b50610d3b565b63ffffffff8111610cf457610cd7601a60058460ff16901b1784610e4090919063ffffffff16565b50610cee81600485610e609092919063ffffffff16565b50610d3a565b67ffffffffffffffff8111610d3957610d20601b60058460ff16901b1784610e4090919063ffffffff16565b50610d3781600885610e609092919063ffffffff16565b505b5b5b5b5b505050565b610d4a6110bc565b610d5c83846000015151848551610e82565b905092915050565b610d81601f60058360ff16901b1783610e4090919063ffffffff16565b505050565b610da460036005600660ff16901b1783610e4090919063ffffffff16565b50610df082827fffffffffffffffffffffffffffffffffffffffffffffffffffffffffffffffff0360405160200180828152602001915050604051602081830303815290604052610f3b565b5050565b610e1260026005600660ff16901b1783610e4090919063ffffffff16565b50610e3c828260405160200180828152602001915050604051602081830303815290604052610f3b565b5050565b610e486110bc565b610e588384600001515184610f60565b905092915050565b610e686110bc565b610e79848560000151518585610fae565b90509392505050565b610e8a6110bc565b8251821115610e9857600080fd5b84602001518285011115610ec357610ec2856002610ebc886020015188870161100f565b0261102b565b5b600080865180518760208301019350808887011115610ee25787860182525b60208701925050505b60208410610f0e5780518252602082019150602081019050602084039350610eeb565b60006001856020036101000a03905080198251168184511681811785525050879350505050949350505050565b610f488260028351610bfd565b610f5b8183610d4290919063ffffffff16565b505050565b610f686110bc565b83602001518310610f8557610f8484600286602001510261102b565b5b8351805160208583010184815381861415610fa1576001820183525b5050508390509392505050565b610fb66110bc565b84602001518483011115610fd457610fd38560028685010261102b565b5b60006001836101000a03905085518386820101858319825116178152815185880111156110015784870182525b505085915050949350505050565b60008183111561102157829050611025565b8190505b92915050565b60608260000151905061103e8383610ba9565b506110498382610d42565b50505050565b6040518060a0016040528060008019168152602001600073ffffffffffffffffffffffffffffffffffffffff16815260200160007bffffffffffffffffffffffffffffffffffffffffffffffffffffffff19168152602001600081526020016110b66110d6565b81525090565b604051806040016040528060608152602001600081525090565b60405180604001604052806060815260200160008152509056fe756e61626c6520746f207472616e73666572416e6443616c6c20746f206f7261636c6568747470733a2f2f7777772e616c70686176616e746167652e636f2f71756572793f66756e6374696f6e3d43555252454e43595f45584348414e47455f524154452666726f6d5f63757272656e63793d42544326746f5f63757272656e63793d555344266170696b65793d51443648344855344542475155413950536f75726365206d75737420626520746865206f7261636c65206f66207468652072657175657374a265627a7a72315820403bda20d1e05d6b356cea0b73d7cb67952d7a56d4dd24f34b6e3cff167ca09a64736f6c63430005110032",
  "source": "pragma solidity ^0.5.11;\n\nimport \"@chainlink/contracts/contracts/v0.5/ChainlinkClient.sol\";\n//import \"https://github.com/smartcontractkit/chainlink/blob/master/evm-contracts/src/v0.5/ChainlinkClient.sol\";\n\n\ncontract APIFeed is ChainlinkClient {\n  \n    uint256 public price;\n    \n    address private oracle;\n    bytes32 private jobId;\n    uint256 private fee;\n    \n    /**\n     * Network: Matic Mumbai Testnet\n     * Oracle: 0xBf87377162512f8098f78f055DFD2aDAc34cbB47\n     * Job ID: 6b57e3fe0d904ba48d137b39350c7892\n     * LINK address: 0x70d1F773A9f81C852087B77F6Ae6d3032B02D2AB\n     * Fee: 0.01 LINK\n     */\n    constructor() public {\n        setChainlinkToken(0x70d1F773A9f81C852087B77F6Ae6d3032B02D2AB);\n        oracle = 0xBf87377162512f8098f78f055DFD2aDAc34cbB47;\n        jobId = \"6b57e3fe0d904ba48d137b39350c7892\";\n        fee = 10 ** 16; // 0.01 LINK\n    }\n\n    function getPrice() public view returns(uint256)\n    {\n        return price;\n    }\n    \n    /**\n     * Create a Chainlink request to retrieve API response, find the target price\n     * data, then multiply by 100 (to remove decimal places from price).\n     */\n    function requestBTCPrice() public returns (bytes32 requestId) \n    {\n        Chainlink.Request memory request = buildChainlinkRequest(jobId, address(this), this.fulfill.selector);\n        \n        // Set the URL to perform the GET request on\n        request.add(\"get\", \"https://www.alphavantage.co/query?function=CURRENCY_EXCHANGE_RATE&from_currency=BTC&to_currency=USD&apikey=QD6H4HU4EBGQUA9P\");\n        \n        \n\n   \n         string[] memory path = new string[](2);\n        path[0] = \"Realtime Currency Exchange Rate\";\n        path[1] = \"5. Exchange Rate\";\n        request.addStringArray(\"path\", path);\n        \n        // Multiply the result by 10000000000 to remove decimals\n        request.addInt(\"times\", 10000000000);\n        \n        // Sends the request\n        return sendChainlinkRequestTo(oracle, request, fee);\n    }\n    \n    /**\n     * Receive the response in the form of uint256\n     */ \n    function fulfill(bytes32 _requestId, uint256 _price) public recordChainlinkFulfillment(_requestId)\n    {\n        price = _price;\n    }\n}\n",
  "sourcePath": "/home/danielo/Matic/upbeat-lukebul/packages/dapplib/contracts/APIFeed.sol",
  "compiler": {
    "name": "solc",
    "version": "0.5.17+commit.d19bba13.Emscripten.clang"
  },
  "schemaVersion": "3.3.3",
  "updatedAt": "2021-02-18T16:16:37.534Z",
  "networkType": "ethereum",
  "devdoc": {
    "methods": {}
  },
  "userdoc": {
    "methods": {
      "constructor": "Network: Matic Mumbai Testnet Oracle: 0xBf87377162512f8098f78f055DFD2aDAc34cbB47 Job ID: 6b57e3fe0d904ba48d137b39350c7892 LINK address: 0x70d1F773A9f81C852087B77F6Ae6d3032B02D2AB Fee: 0.01 LINK",
      "fulfill(bytes32,uint256)": {
        "notice": "Receive the response in the form of uint256"
      },
      "requestBTCPrice()": {
        "notice": "Create a Chainlink request to retrieve API response, find the target price data, then multiply by 100 (to remove decimal places from price)."
      }
    }
  }
}