{
  "contractName": "DappState",
  "abi": [
    {
      "inputs": [],
      "payable": false,
      "stateMutability": "nonpayable",
      "type": "constructor"
    },
    {
      "anonymous": false,
      "inputs": [
        {
          "indexed": true,
          "internalType": "address",
          "name": "owner",
          "type": "address"
        },
        {
          "indexed": true,
          "internalType": "address",
          "name": "spender",
          "type": "address"
        },
        {
          "indexed": false,
          "internalType": "uint256",
          "name": "value",
          "type": "uint256"
        }
      ],
      "name": "Approval",
      "type": "event"
    },
    {
      "anonymous": false,
      "inputs": [
        {
          "indexed": true,
          "internalType": "bool",
          "name": "mode",
          "type": "bool"
        },
        {
          "indexed": true,
          "internalType": "address",
          "name": "account",
          "type": "address"
        },
        {
          "indexed": false,
          "internalType": "uint256",
          "name": "timestamp",
          "type": "uint256"
        }
      ],
      "name": "ChangeContractRunState",
      "type": "event"
    },
    {
      "anonymous": false,
      "inputs": [
        {
          "indexed": true,
          "internalType": "address",
          "name": "from",
          "type": "address"
        },
        {
          "indexed": true,
          "internalType": "address",
          "name": "to",
          "type": "address"
        },
        {
          "indexed": false,
          "internalType": "uint256",
          "name": "value",
          "type": "uint256"
        }
      ],
      "name": "Transfer",
      "type": "event"
    },
    {
      "constant": true,
      "inputs": [],
      "name": "UNIT_MULTIPLIER",
      "outputs": [
        {
          "internalType": "uint256",
          "name": "",
          "type": "uint256"
        }
      ],
      "payable": false,
      "stateMutability": "view",
      "type": "function"
    },
    {
      "constant": true,
      "inputs": [],
      "name": "decimals",
      "outputs": [
        {
          "internalType": "uint256",
          "name": "",
          "type": "uint256"
        }
      ],
      "payable": false,
      "stateMutability": "view",
      "type": "function"
    },
    {
      "constant": true,
      "inputs": [],
      "name": "initialSupply",
      "outputs": [
        {
          "internalType": "uint256",
          "name": "",
          "type": "uint256"
        }
      ],
      "payable": false,
      "stateMutability": "view",
      "type": "function"
    },
    {
      "constant": true,
      "inputs": [],
      "name": "name",
      "outputs": [
        {
          "internalType": "string",
          "name": "",
          "type": "string"
        }
      ],
      "payable": false,
      "stateMutability": "view",
      "type": "function"
    },
    {
      "constant": true,
      "inputs": [],
      "name": "symbol",
      "outputs": [
        {
          "internalType": "string",
          "name": "",
          "type": "string"
        }
      ],
      "payable": false,
      "stateMutability": "view",
      "type": "function"
    },
    {
      "constant": true,
      "inputs": [],
      "name": "total",
      "outputs": [
        {
          "internalType": "uint256",
          "name": "",
          "type": "uint256"
        }
      ],
      "payable": false,
      "stateMutability": "view",
      "type": "function"
    },
    {
      "constant": true,
      "inputs": [],
      "name": "isContractRunStateActive",
      "outputs": [
        {
          "internalType": "bool",
          "name": "",
          "type": "bool"
        }
      ],
      "payable": false,
      "stateMutability": "view",
      "type": "function"
    },
    {
      "constant": false,
      "inputs": [
        {
          "internalType": "bool",
          "name": "mode",
          "type": "bool"
        }
      ],
      "name": "setContractRunState",
      "outputs": [],
      "payable": false,
      "stateMutability": "nonpayable",
      "type": "function"
    },
    {
      "constant": true,
      "inputs": [
        {
          "internalType": "address",
          "name": "account",
          "type": "address"
        }
      ],
      "name": "isContractAdmin",
      "outputs": [
        {
          "internalType": "bool",
          "name": "",
          "type": "bool"
        }
      ],
      "payable": false,
      "stateMutability": "view",
      "type": "function"
    },
    {
      "constant": false,
      "inputs": [
        {
          "internalType": "address",
          "name": "account",
          "type": "address"
        }
      ],
      "name": "addContractAdmin",
      "outputs": [],
      "payable": false,
      "stateMutability": "nonpayable",
      "type": "function"
    },
    {
      "constant": false,
      "inputs": [
        {
          "internalType": "address",
          "name": "account",
          "type": "address"
        }
      ],
      "name": "removeContractAdmin",
      "outputs": [],
      "payable": false,
      "stateMutability": "nonpayable",
      "type": "function"
    },
    {
      "constant": false,
      "inputs": [
        {
          "internalType": "address",
          "name": "account",
          "type": "address"
        }
      ],
      "name": "removeLastContractAdmin",
      "outputs": [],
      "payable": false,
      "stateMutability": "nonpayable",
      "type": "function"
    },
    {
      "constant": true,
      "inputs": [],
      "name": "totalSupply",
      "outputs": [
        {
          "internalType": "uint256",
          "name": "",
          "type": "uint256"
        }
      ],
      "payable": false,
      "stateMutability": "view",
      "type": "function"
    },
    {
      "constant": true,
      "inputs": [],
      "name": "balance",
      "outputs": [
        {
          "internalType": "uint256",
          "name": "",
          "type": "uint256"
        }
      ],
      "payable": false,
      "stateMutability": "view",
      "type": "function"
    },
    {
      "constant": true,
      "inputs": [
        {
          "internalType": "address",
          "name": "owner",
          "type": "address"
        }
      ],
      "name": "balanceOf",
      "outputs": [
        {
          "internalType": "uint256",
          "name": "",
          "type": "uint256"
        }
      ],
      "payable": false,
      "stateMutability": "view",
      "type": "function"
    },
    {
      "constant": false,
      "inputs": [
        {
          "internalType": "address",
          "name": "to",
          "type": "address"
        },
        {
          "internalType": "uint256",
          "name": "value",
          "type": "uint256"
        }
      ],
      "name": "transfer",
      "outputs": [
        {
          "internalType": "bool",
          "name": "",
          "type": "bool"
        }
      ],
      "payable": false,
      "stateMutability": "nonpayable",
      "type": "function"
    },
    {
      "constant": false,
      "inputs": [
        {
          "internalType": "address",
          "name": "from",
          "type": "address"
        },
        {
          "internalType": "address",
          "name": "to",
          "type": "address"
        },
        {
          "internalType": "uint256",
          "name": "value",
          "type": "uint256"
        }
      ],
      "name": "transferFrom",
      "outputs": [
        {
          "internalType": "bool",
          "name": "",
          "type": "bool"
        }
      ],
      "payable": false,
      "stateMutability": "nonpayable",
      "type": "function"
    },
    {
      "constant": true,
      "inputs": [
        {
          "internalType": "address",
          "name": "owner",
          "type": "address"
        },
        {
          "internalType": "address",
          "name": "spender",
          "type": "address"
        }
      ],
      "name": "allowance",
      "outputs": [
        {
          "internalType": "uint256",
          "name": "",
          "type": "uint256"
        }
      ],
      "payable": false,
      "stateMutability": "view",
      "type": "function"
    },
    {
      "constant": false,
      "inputs": [
        {
          "internalType": "address",
          "name": "spender",
          "type": "address"
        },
        {
          "internalType": "uint256",
          "name": "value",
          "type": "uint256"
        }
      ],
      "name": "approve",
      "outputs": [
        {
          "internalType": "bool",
          "name": "",
          "type": "bool"
        }
      ],
      "payable": false,
      "stateMutability": "nonpayable",
      "type": "function"
    },
    {
      "constant": true,
      "inputs": [],
      "name": "getContractOwner",
      "outputs": [
        {
          "internalType": "address",
          "name": "",
          "type": "address"
        }
      ],
      "payable": false,
      "stateMutability": "view",
      "type": "function"
    },
    {
      "constant": false,
      "inputs": [
        {
          "internalType": "uint256",
          "name": "increment",
          "type": "uint256"
        }
      ],
      "name": "incrementCounter",
      "outputs": [],
      "payable": false,
      "stateMutability": "nonpayable",
      "type": "function"
    },
    {
      "constant": true,
      "inputs": [],
      "name": "getCounter",
      "outputs": [
        {
          "internalType": "uint256",
          "name": "",
          "type": "uint256"
        }
      ],
      "payable": false,
      "stateMutability": "view",
      "type": "function"
    }
  ],
  "bytecode": "0x60806040526001600060146101000a81548160ff021916908315150217905550600180553480156200003057600080fd5b50336000806101000a81548173ffffffffffffffffffffffffffffffffffffffff021916908373ffffffffffffffffffffffffffffffffffffffff1602179055506001600260003373ffffffffffffffffffffffffffffffffffffffff1673ffffffffffffffffffffffffffffffffffffffff168152602001908152602001600020819055506040518060400160405280600b81526020017f4a7569637920537465616b000000000000000000000000000000000000000000815250600390805190602001906200010392919062000242565b506040518060400160405280600581526020017f4a55494359000000000000000000000000000000000000000000000000000000815250600490805190602001906200015192919062000242565b506012600581905550600554600a0a600a819055506000620f424090506200018a600a54826200020760201b62001c971790919060201c565b600881905550600854600981905550600854600660008060009054906101000a900473ffffffffffffffffffffffffffffffffffffffff1673ffffffffffffffffffffffffffffffffffffffff1673ffffffffffffffffffffffffffffffffffffffff1681526020019081526020016000208190555050620002f1565b6000808314156200021c57600090506200023c565b60008284029050828482816200022e57fe5b04146200023757fe5b809150505b92915050565b828054600181600116156101000203166002900490600052602060002090601f016020900481019282601f106200028557805160ff1916838001178555620002b6565b82800160010185558215620002b6579182015b82811115620002b557825182559160200191906001019062000298565b5b509050620002c59190620002c9565b5090565b620002ee91905b80821115620002ea576000816000905550600101620002d0565b5090565b90565b611d1180620003016000396000f3fe608060405234801561001057600080fd5b50600436106101425760003560e01c806370a08231116100b8578063a9059cbb1161007c578063a9059cbb14610355578063b69ef8a814610385578063dd62ed3e146103a3578063dda32e8b146103d3578063fc540cd3146103ef578063fc81a12a1461040d57610142565b806370a08231146102b15780638ada066e146102e157806395d89b41146102ff578063a417a5641461031d578063a90132291461033957610142565b8063313ce5671161010a578063313ce56714610201578063378dc3dc1461021f578063442890d51461023d5780634743909e1461025b5780636a608d3a146102775780636abbb3b41461029557610142565b806306fdde0314610147578063095ea7b31461016557806318160ddd1461019557806323b872dd146101b35780632ddbd13a146101e3575b600080fd5b61014f61043d565b60405161015c9190611a6d565b60405180910390f35b61017f600480360361017a91908101906116d1565b6104db565b60405161018c9190611a52565b60405180910390f35b61019d61061b565b6040516101aa9190611b8f565b60405180910390f35b6101cd60048036036101c89190810190611682565b610625565b6040516101da9190611a52565b60405180910390f35b6101eb610a69565b6040516101f89190611b8f565b60405180910390f35b610209610a6f565b6040516102169190611b8f565b60405180910390f35b610227610a75565b6040516102349190611b8f565b60405180910390f35b610245610a7b565b6040516102529190611a37565b60405180910390f35b6102756004803603610270919081019061161d565b610aa4565b005b61027f610c4a565b60405161028c9190611a52565b60405180910390f35b6102af60048036036102aa9190810190611736565b610c60565b005b6102cb60048036036102c6919081019061161d565b610ccd565b6040516102d89190611b8f565b60405180910390f35b6102e9610d16565b6040516102f69190611b8f565b60405180910390f35b610307610d20565b6040516103149190611a6d565b60405180910390f35b6103376004803603610332919081019061161d565b610dbe565b005b610353600480360361034e919081019061161d565b610f62565b005b61036f600480360361036a91908101906116d1565b611145565b60405161037c9190611a52565b60405180910390f35b61038d6113b6565b60405161039a9190611b8f565b60405180910390f35b6103bd60048036036103b89190810190611646565b6113c6565b6040516103ca9190611b8f565b60405180910390f35b6103ed60048036036103e8919081019061170d565b61144d565b005b6103f7611559565b6040516104049190611b8f565b60405180910390f35b6104276004803603610422919081019061161d565b61155f565b6040516104349190611a52565b60405180910390f35b60038054600181600116156101000203166002900480601f0160208091040260200160405190810160405280929190818152602001828054600181600116156101000203166002900480156104d35780601f106104a8576101008083540402835291602001916104d3565b820191906000526020600020905b8154815290600101906020018083116104b657829003601f168201915b505050505081565b60008060149054906101000a900460ff1661052b576040517f08c379a000000000000000000000000000000000000000000000000000000000815260040161052290611b4f565b60405180910390fd5b81600760003373ffffffffffffffffffffffffffffffffffffffff1673ffffffffffffffffffffffffffffffffffffffff16815260200190815260200160002060008573ffffffffffffffffffffffffffffffffffffffff1673ffffffffffffffffffffffffffffffffffffffff168152602001908152602001600020819055508273ffffffffffffffffffffffffffffffffffffffff163373ffffffffffffffffffffffffffffffffffffffff167f8c5be1e5ebec7d5bd14f71427d1e84f3dd0314c0f7b2291e5b200ac8c7c3b925846040516106099190611b8f565b60405180910390a36001905092915050565b6000600854905090565b60008060149054906101000a900460ff16610675576040517f08c379a000000000000000000000000000000000000000000000000000000000815260040161066c90611b4f565b60405180910390fd5b600073ffffffffffffffffffffffffffffffffffffffff168473ffffffffffffffffffffffffffffffffffffffff1614156106af57600080fd5b600760008573ffffffffffffffffffffffffffffffffffffffff1673ffffffffffffffffffffffffffffffffffffffff16815260200190815260200160002060003373ffffffffffffffffffffffffffffffffffffffff1673ffffffffffffffffffffffffffffffffffffffff1681526020019081526020016000205482111561073857600080fd5b61074184610ccd565b82111561074d57600080fd5b600073ffffffffffffffffffffffffffffffffffffffff168373ffffffffffffffffffffffffffffffffffffffff16141561078757600080fd5b8273ffffffffffffffffffffffffffffffffffffffff168473ffffffffffffffffffffffffffffffffffffffff1614156107c057600080fd5b61081282600660008773ffffffffffffffffffffffffffffffffffffffff1673ffffffffffffffffffffffffffffffffffffffff168152602001908152602001600020546115ab90919063ffffffff16565b600660008673ffffffffffffffffffffffffffffffffffffffff1673ffffffffffffffffffffffffffffffffffffffff168152602001908152602001600020819055506108a782600660008673ffffffffffffffffffffffffffffffffffffffff1673ffffffffffffffffffffffffffffffffffffffff168152602001908152602001600020546115c290919063ffffffff16565b600660008573ffffffffffffffffffffffffffffffffffffffff1673ffffffffffffffffffffffffffffffffffffffff1681526020019081526020016000208190555061097982600760008773ffffffffffffffffffffffffffffffffffffffff1673ffffffffffffffffffffffffffffffffffffffff16815260200190815260200160002060003373ffffffffffffffffffffffffffffffffffffffff1673ffffffffffffffffffffffffffffffffffffffff168152602001908152602001600020546115ab90919063ffffffff16565b600760008673ffffffffffffffffffffffffffffffffffffffff1673ffffffffffffffffffffffffffffffffffffffff16815260200190815260200160002060003373ffffffffffffffffffffffffffffffffffffffff1673ffffffffffffffffffffffffffffffffffffffff168152602001908152602001600020819055508273ffffffffffffffffffffffffffffffffffffffff168473ffffffffffffffffffffffffffffffffffffffff167fddf252ad1be2c89b69c2b068fc378daa952ba7f163c4a11628f55a4df523b3ef84604051610a569190611b8f565b60405180910390a3600190509392505050565b60085481565b60055481565b60095481565b60008060009054906101000a900473ffffffffffffffffffffffffffffffffffffffff16905090565b600060149054906101000a900460ff16610af3576040517f08c379a0000000000000000000000000000000000000000000000000000000008152600401610aea90611b4f565b60405180910390fd5b610afc3361155f565b610b3b576040517f08c379a0000000000000000000000000000000000000000000000000000000008152600401610b3290611b6f565b60405180910390fd5b600073ffffffffffffffffffffffffffffffffffffffff168173ffffffffffffffffffffffffffffffffffffffff161415610bab576040517f08c379a0000000000000000000000000000000000000000000000000000000008152600401610ba290611a8f565b60405180910390fd5b60026001541015610bf1576040517f08c379a0000000000000000000000000000000000000000000000000000000008152600401610be890611acf565b60405180910390fd5b600260008273ffffffffffffffffffffffffffffffffffffffff1673ffffffffffffffffffffffffffffffffffffffff168152602001908152602001600020600090556001600081548092919060019003919050555050565b60008060149054906101000a900460ff16905090565b600081118015610c705750600a81105b610caf576040517f08c379a0000000000000000000000000000000000000000000000000000000008152600401610ca690611aef565b60405180910390fd5b610cc481600b546115c290919063ffffffff16565b600b8190555050565b6000600660008373ffffffffffffffffffffffffffffffffffffffff1673ffffffffffffffffffffffffffffffffffffffff168152602001908152602001600020549050919050565b6000600b54905090565b60048054600181600116156101000203166002900480601f016020809104026020016040519081016040528092919081815260200182805460018160011615610100020316600290048015610db65780601f10610d8b57610100808354040283529160200191610db6565b820191906000526020600020905b815481529060010190602001808311610d9957829003601f168201915b505050505081565b600060149054906101000a900460ff16610e0d576040517f08c379a0000000000000000000000000000000000000000000000000000000008152600401610e0490611b4f565b60405180910390fd5b610e163361155f565b610e55576040517f08c379a0000000000000000000000000000000000000000000000000000000008152600401610e4c90611b6f565b60405180910390fd5b600073ffffffffffffffffffffffffffffffffffffffff168173ffffffffffffffffffffffffffffffffffffffff161415610ec5576040517f08c379a0000000000000000000000000000000000000000000000000000000008152600401610ebc90611a8f565b60405180910390fd5b6001805414610f09576040517f08c379a0000000000000000000000000000000000000000000000000000000008152600401610f0090611b2f565b60405180910390fd5b600260008273ffffffffffffffffffffffffffffffffffffffff1673ffffffffffffffffffffffffffffffffffffffff168152602001908152602001600020600090556001600081548092919060019003919050555050565b600060149054906101000a900460ff16610fb1576040517f08c379a0000000000000000000000000000000000000000000000000000000008152600401610fa890611b4f565b60405180910390fd5b610fba3361155f565b610ff9576040517f08c379a0000000000000000000000000000000000000000000000000000000008152600401610ff090611b6f565b60405180910390fd5b600073ffffffffffffffffffffffffffffffffffffffff168173ffffffffffffffffffffffffffffffffffffffff161415611069576040517f08c379a000000000000000000000000000000000000000000000000000000000815260040161106090611a8f565b60405180910390fd5b6001600260008373ffffffffffffffffffffffffffffffffffffffff1673ffffffffffffffffffffffffffffffffffffffff16815260200190815260200160002054106110eb576040517f08c379a00000000000000000000000000000000000000000000000000000000081526004016110e290611b0f565b60405180910390fd5b6001600260008373ffffffffffffffffffffffffffffffffffffffff1673ffffffffffffffffffffffffffffffffffffffff1681526020019081526020016000208190555060016000815480929190600101919050555050565b60008060149054906101000a900460ff16611195576040517f08c379a000000000000000000000000000000000000000000000000000000000815260040161118c90611b4f565b60405180910390fd5b600073ffffffffffffffffffffffffffffffffffffffff168373ffffffffffffffffffffffffffffffffffffffff1614156111cf57600080fd5b3373ffffffffffffffffffffffffffffffffffffffff168373ffffffffffffffffffffffffffffffffffffffff16141561120857600080fd5b61121133610ccd565b82111561121d57600080fd5b61126f82600660003373ffffffffffffffffffffffffffffffffffffffff1673ffffffffffffffffffffffffffffffffffffffff168152602001908152602001600020546115ab90919063ffffffff16565b600660003373ffffffffffffffffffffffffffffffffffffffff1673ffffffffffffffffffffffffffffffffffffffff1681526020019081526020016000208190555061130482600660008673ffffffffffffffffffffffffffffffffffffffff1673ffffffffffffffffffffffffffffffffffffffff168152602001908152602001600020546115c290919063ffffffff16565b600660008573ffffffffffffffffffffffffffffffffffffffff1673ffffffffffffffffffffffffffffffffffffffff168152602001908152602001600020819055508273ffffffffffffffffffffffffffffffffffffffff163373ffffffffffffffffffffffffffffffffffffffff167fddf252ad1be2c89b69c2b068fc378daa952ba7f163c4a11628f55a4df523b3ef846040516113a49190611b8f565b60405180910390a36001905092915050565b60006113c133610ccd565b905090565b6000600760008473ffffffffffffffffffffffffffffffffffffffff1673ffffffffffffffffffffffffffffffffffffffff16815260200190815260200160002060008373ffffffffffffffffffffffffffffffffffffffff1673ffffffffffffffffffffffffffffffffffffffff16815260200190815260200160002054905092915050565b6114563361155f565b611495576040517f08c379a000000000000000000000000000000000000000000000000000000000815260040161148c90611b6f565b60405180910390fd5b600060149054906101000a900460ff16151581151514156114eb576040517f08c379a00000000000000000000000000000000000000000000000000000000081526004016114e290611aaf565b60405180910390fd5b80600060146101000a81548160ff0219169083151502179055503373ffffffffffffffffffffffffffffffffffffffff168115157f87940744dc90d1a49f1f4ebde1776cdaac0e0580f253b6359165395d680613a64260405161154e9190611b8f565b60405180910390a350565b600a5481565b60006001600260008473ffffffffffffffffffffffffffffffffffffffff1673ffffffffffffffffffffffffffffffffffffffff16815260200190815260200160002054149050919050565b6000828211156115b757fe5b818303905092915050565b6000808284019050838110156115d457fe5b8091505092915050565b6000813590506115ed81611c52565b92915050565b60008135905061160281611c69565b92915050565b60008135905061161781611c80565b92915050565b60006020828403121561162f57600080fd5b600061163d848285016115de565b91505092915050565b6000806040838503121561165957600080fd5b6000611667858286016115de565b9250506020611678858286016115de565b9150509250929050565b60008060006060848603121561169757600080fd5b60006116a5868287016115de565b93505060206116b6868287016115de565b92505060406116c786828701611608565b9150509250925092565b600080604083850312156116e457600080fd5b60006116f2858286016115de565b925050602061170385828601611608565b9150509250929050565b60006020828403121561171f57600080fd5b600061172d848285016115f3565b91505092915050565b60006020828403121561174857600080fd5b600061175684828501611608565b91505092915050565b61176881611bc6565b82525050565b61177781611bd8565b82525050565b600061178882611baa565b6117928185611bb5565b93506117a2818560208601611c0e565b6117ab81611c41565b840191505092915050565b60006117c3600f83611bb5565b91507f496e76616c6964206164647265737300000000000000000000000000000000006000830152602082019050919050565b6000611803602a83611bb5565b91507f52756e20737461746520697320616c72656164792073657420746f207468652060008301527f73616d652076616c7565000000000000000000000000000000000000000000006020830152604082019050919050565b6000611869601883611bb5565b91507f43616e6e6f742072656d6f7665206c6173742061646d696e00000000000000006000830152602082019050919050565b60006118a9601783611bb5565b91507f496e76616c696420696e6372656d656e742076616c75650000000000000000006000830152602082019050919050565b60006118e9602383611bb5565b91507f4163636f756e7420697320616c726561647920616e2061646d696e697374726160008301527f746f7200000000000000000000000000000000000000000000000000000000006020830152604082019050919050565b600061194f601283611bb5565b91507f4e6f7420746865206c6173742061646d696e00000000000000000000000000006000830152602082019050919050565b600061198f602083611bb5565b91507f436f6e74726163742069732063757272656e746c79206e6f74206163746976656000830152602082019050919050565b60006119cf602683611bb5565b91507f43616c6c6572206973206e6f74206120636f6e74726163742061646d696e697360008301527f747261746f7200000000000000000000000000000000000000000000000000006020830152604082019050919050565b611a3181611c04565b82525050565b6000602082019050611a4c600083018461175f565b92915050565b6000602082019050611a67600083018461176e565b92915050565b60006020820190508181036000830152611a87818461177d565b905092915050565b60006020820190508181036000830152611aa8816117b6565b9050919050565b60006020820190508181036000830152611ac8816117f6565b9050919050565b60006020820190508181036000830152611ae88161185c565b9050919050565b60006020820190508181036000830152611b088161189c565b9050919050565b60006020820190508181036000830152611b28816118dc565b9050919050565b60006020820190508181036000830152611b4881611942565b9050919050565b60006020820190508181036000830152611b6881611982565b9050919050565b60006020820190508181036000830152611b88816119c2565b9050919050565b6000602082019050611ba46000830184611a28565b92915050565b600081519050919050565b600082825260208201905092915050565b6000611bd182611be4565b9050919050565b60008115159050919050565b600073ffffffffffffffffffffffffffffffffffffffff82169050919050565b6000819050919050565b60005b83811015611c2c578082015181840152602081019050611c11565b83811115611c3b576000848401525b50505050565b6000601f19601f8301169050919050565b611c5b81611bc6565b8114611c6657600080fd5b50565b611c7281611bd8565b8114611c7d57600080fd5b50565b611c8981611c04565b8114611c9457600080fd5b50565b600080831415611caa5760009050611cc8565b6000828402905082848281611cbb57fe5b0414611cc357fe5b809150505b9291505056fea365627a7a72315820cc463c7a67078e2fa64a4ff47728b64462eb56a72a66bb665a6fe21b98c1c1f36c6578706572696d656e74616cf564736f6c63430005110040",
  "source": "pragma solidity  >=0.5.0;\npragma experimental ABIEncoderV2;\n\nimport \"./interfaces/IDappState.sol\";\nimport \"./DappLib.sol\";\n\n\n/********************************************************************************************/\n/* This contract is auto-generated based on your choices in DappStarter. You can make       */\n/* changes, but be aware that generating a new DappStarter project will require you to      */\n/* merge changes. One approach you can take is to make changes in Dapp.sol and have it      */\n/* call into this one. You can maintain all your data in this contract and your app logic   */\n/* in Dapp.sol. This lets you update and deploy Dapp.sol with revised code and still        */\n/* continue using this one.                                                                 */\n/********************************************************************************************/\n\ncontract DappState is IDappState {\n    // Allow DappLib(SafeMath) functions to be called for all uint256 types\n    // (similar to \"prototype\" in Javascript)\n    using DappLib for uint256; \n\n\n/*@@@@@@@@@@@@@@@@@@@@@@@@@@@@@@@@@@@@@@@@@@@@@@@@@@@@@@@@@@@@@@@@@@@@@@@@@@@@@@@@@@@@@@@@@@*/\n/*@@@@@@@@@@@@@@@@@@@@@@@@@@@@@@@@@@@@@@@@ S T A T E @@@@@@@@@@@@@@@@@@@@@@@@@@@@@@@@@@@@@@@*/\n/*@@@@@@@@@@@@@@@@@@@@@@@@@@@@@@@@@@@@@@@@@@@@@@@@@@@@@@@@@@@@@@@@@@@@@@@@@@@@@@@@@@@@@@@@@@*/\n\n    // Account used to deploy contract\n    address private contractOwner;                  \n\n/*>>>>>>>>>>>>>>>>>>>>>>>>>>> ACCESS CONTROL: CONTRACT RUN STATE  <<<<<<<<<<<<<<<<<<<<<<<<<<*/\n    // Contract run state\n    bool private contractRunState = true;          \n\n/*>>>>>>>>>>>>>>>>>>>>>>>>>>> ACCESS CONTROL: ADMINISTRATOR ROLE  <<<<<<<<<<<<<<<<<<<<<<<<<<*/\n    // Track authorized admins count to prevent lockout\n    uint256 private authorizedAdminsCount = 1;                      \n\n    // Admins authorized to manage contract\n    mapping(address => uint256) private authorizedAdmins;                      \n\n/*>>>>>>>>>>>>>>>>>>>>>>>>>>>>>> ASSET VALUE TRACKING: TOKEN  <<<<<<<<<<<<<<<<<<<<<<<<<<<<<<*/\n    string public name;\n    string public symbol;\n    uint256 public decimals;\n    \n    // Token balance for each address\n    mapping(address => uint256) balances;              \n\n    // Approval granted to transfer tokens by one address to another address                 \n    mapping (address => mapping (address => uint256)) internal allowed; \n\n    // Tokens currently in circulation (you'll need to update this if you create more tokens)\n    uint256 public total;                  \n\n    // Tokens created when contract was deployed                             \n    uint256 public initialSupply;         \n\n    // Multiplier to convert to smallest unit                              \n    uint256 public UNIT_MULTIPLIER;                                     \n\n\n/*@@@@@@@@@@@@@@@@@@@@@@@@@@@@@@@@@@@@@@@@@@@@@@@@@@@@@@@@@@@@@@@@@@@@@@@@@@@@@@@@@@@@@@@@@@*/\n/*@@@@@@@@@@@@@@@@@@@@@@@@@@@@@@@@@@ C O N S T R U C T O R @@@@@@@@@@@@@@@@@@@@@@@@@@@@@@@@@*/\n/*@@@@@@@@@@@@@@@@@@@@@@@@@@@@@@@@@@@@@@@@@@@@@@@@@@@@@@@@@@@@@@@@@@@@@@@@@@@@@@@@@@@@@@@@@@*/\n\n    constructor() public \n    {\n        contractOwner = msg.sender;       \n\n/*>>>>>>>>>>>>>>>>>>>>>>>>>>> ACCESS CONTROL: ADMINISTRATOR ROLE  <<<<<<<<<<<<<<<<<<<<<<<<<<*/\n        // Add account that deployed contract as an authorized admin\n        authorizedAdmins[msg.sender] = 1;       \n\n/*>>>>>>>>>>>>>>>>>>>>>>>>>>>>>> ASSET VALUE TRACKING: TOKEN  <<<<<<<<<<<<<<<<<<<<<<<<<<<<<<*/\n        name = \"Juicy Steak\";             \n        symbol = \"JUICY\";           \n        decimals = 18;     \n\n        // Multiplier to convert to smallest unit\n        UNIT_MULTIPLIER = 10 ** uint256(decimals); \n\n        uint256 supply = 1000000;       \n\n        // Convert supply to smallest unit\n        total = supply.mul(UNIT_MULTIPLIER);    \n        initialSupply = total;\n\n        // Assign entire initial supply to contract owner\n        balances[contractOwner] = total;    \n\n    }\n\n/*@@@@@@@@@@@@@@@@@@@@@@@@@@@@@@@@@@@@@@@@@@@@@@@@@@@@@@@@@@@@@@@@@@@@@@@@@@@@@@@@@@@@@@@@@@*/\n/*@@@@@@@@@@@@@@@@@@@@@@@@@@@@@@@@@@@@@@@ E V E N T S @@@@@@@@@@@@@@@@@@@@@@@@@@@@@@@@@@@@@@*/\n/*@@@@@@@@@@@@@@@@@@@@@@@@@@@@@@@@@@@@@@@@@@@@@@@@@@@@@@@@@@@@@@@@@@@@@@@@@@@@@@@@@@@@@@@@@@*/\n\n\n/*>>>>>>>>>>>>>>>>>>>>>>>>>>> ACCESS CONTROL: CONTRACT RUN STATE  <<<<<<<<<<<<<<<<<<<<<<<<<<*/\n    // Event fired when status is changed\n    event ChangeContractRunState      \n                    (\n                        bool indexed mode,\n                        address indexed account,\n                        uint256 timestamp\n                    );\n\n/*>>>>>>>>>>>>>>>>>>>>>>>>>>>>>> ASSET VALUE TRACKING: TOKEN  <<<<<<<<<<<<<<<<<<<<<<<<<<<<<<*/\n    // Fired when an account authorizes another account to spend tokens on its behalf\n    event Approval          \n                            (\n                                address indexed owner, \n                                address indexed spender, \n                                uint256 value\n                            );\n\n    // Fired when tokens are transferred from one account to another\n    event Transfer          \n                            (\n                                address indexed from, \n                                address indexed to, \n                                uint256 value\n                            );\n\n\n/*@@@@@@@@@@@@@@@@@@@@@@@@@@@@@@@@@@@@@@@@@@@@@@@@@@@@@@@@@@@@@@@@@@@@@@@@@@@@@@@@@@@@@@@@@@*/\n/*@@@@@@@@@@@@@@@@@@@@@@@@@@@@@@@@@@@@ M O D I F I E R S @@@@@@@@@@@@@@@@@@@@@@@@@@@@@@@@@@@*/\n/*@@@@@@@@@@@@@@@@@@@@@@@@@@@@@@@@@@@@@@@@@@@@@@@@@@@@@@@@@@@@@@@@@@@@@@@@@@@@@@@@@@@@@@@@@@*/\n\n\n/*>>>>>>>>>>>>>>>>>>>>>>>>>>> ACCESS CONTROL: CONTRACT RUN STATE  <<<<<<<<<<<<<<<<<<<<<<<<<<*/\n    /**\n    * @dev Modifier that requires the \"contractRunState\" boolean variable to be \"true\"\n    *      This is used on all state changing functions to pause the contract in \n    *      the event there is an issue that needs to be fixed\n    */\n    modifier requireContractRunStateActive() \n    {\n        require(contractRunState, \"Contract is currently not active\");\n        // Modifiers require an \"_\" which indicates where the function body will be added\n        _; \n    }\n\n/*>>>>>>>>>>>>>>>>>>>>>>>>>>> ACCESS CONTROL: ADMINISTRATOR ROLE  <<<<<<<<<<<<<<<<<<<<<<<<<<*/\n    /**\n    * @dev Modifier that requires the function caller to be a contract admin\n    */\n    modifier requireContractAdmin()\n    {\n        require(isContractAdmin(msg.sender), \"Caller is not a contract administrator\");\n        // Modifiers require an \"_\" which indicates where the function body will be added\n        _;\n    }\n\n\n/*@@@@@@@@@@@@@@@@@@@@@@@@@@@@@@@@@@@@@@@@@@@@@@@@@@@@@@@@@@@@@@@@@@@@@@@@@@@@@@@@@@@@@@@@@@*/\n/*@@@@@@@@@@@@@@@@@@@@@@@@@@@@@@@@@@@@@@ F U N C T I O N S @@@@@@@@@@@@@@@@@@@@@@@@@@@@@@@@@*/\n/*@@@@@@@@@@@@@@@@@@@@@@@@@@@@@@@@@@@@@@@@@@@@@@@@@@@@@@@@@@@@@@@@@@@@@@@@@@@@@@@@@@@@@@@@@@*/\n\n\n/*>>>>>>>>>>>>>>>>>>>>>>>>>>> ACCESS CONTROL: CONTRACT RUN STATE  <<<<<<<<<<<<<<<<<<<<<<<<<<*/\n    /**\n    * @dev Get active status of contract\n    *\n    * @return A bool that is the current active status\n    */    \n    function isContractRunStateActive()\n                        external \n                        view \n                        returns(bool)\n    {\n        return contractRunState;\n    }\n\n    /**\n    * @dev Sets contract active status on/off\n    *\n    * When active status is off, all write transactions except for this one will fail\n    */    \n    function setContractRunState\n                    (\n                        bool mode\n                    ) \n                    external \n                    // **** WARNING: Adding requireContractRunStateActive modifier will result in contract lockout ****\n                    requireContractAdmin  // Administrator Role block is required to ensure only authorized individuals can pause contract\n    {\n        require(mode != contractRunState, \"Run state is already set to the same value\");\n        contractRunState = mode;\n\n        emit ChangeContractRunState(mode, msg.sender, now);\n    }\n                        \n\n/*>>>>>>>>>>>>>>>>>>>>>>>>>>> ACCESS CONTROL: ADMINISTRATOR ROLE  <<<<<<<<<<<<<<<<<<<<<<<<<<*/\n    /**\n    * @dev Checks if an account is an admin\n    *\n    * @param account Address of the account to check\n    */\n    function isContractAdmin\n                            (\n                                address account\n                            ) \n                            public \n                            view\n                            returns(bool) \n    {\n        return authorizedAdmins[account] == 1;\n    }\n\n\n    /**\n    * @dev Adds a contract admin\n    *\n    * @param account Address of the admin to add\n    */\n    function addContractAdmin\n                            (\n                                address account\n                            ) \n                            external \n                            requireContractRunStateActive \n                            requireContractAdmin\n    {\n        require(account != address(0), \"Invalid address\");\n        require(authorizedAdmins[account] < 1, \"Account is already an administrator\");\n\n        authorizedAdmins[account] = 1;\n        authorizedAdminsCount++;\n    }\n\n    /**\n    * @dev Removes a previously added admin\n    *\n    * @param account Address of the admin to remove\n    */\n    function removeContractAdmin\n                            (\n                                address account\n                            ) \n                            external \n                            requireContractRunStateActive\n                            requireContractAdmin\n    {\n        require(account != address(0), \"Invalid address\");\n        require(authorizedAdminsCount >= 2, \"Cannot remove last admin\");\n\n        delete authorizedAdmins[account];\n        authorizedAdminsCount--;\n    }\n\n    /**\n    * @dev Removes the last admin fully decentralizing the contract\n    *\n    * @param account Address of the admin to remove\n    */\n    function removeLastContractAdmin\n                            (\n                                address account\n                            ) \n                            external \n                            requireContractRunStateActive\n                            requireContractAdmin\n    {\n        require(account != address(0), \"Invalid address\");\n        require(authorizedAdminsCount == 1, \"Not the last admin\");\n\n        delete authorizedAdmins[account];\n        authorizedAdminsCount--;\n    }\n\n\n/*>>>>>>>>>>>>>>>>>>>>>>>>>>>>>> ASSET VALUE TRACKING: TOKEN  <<<<<<<<<<<<<<<<<<<<<<<<<<<<<<*/\n    /**\n    * @dev Total supply of tokens\n    */\n    function totalSupply() \n                            external \n                            view \n                            returns (uint256) \n    {\n        return total;\n    }\n\n    /**\n    * @dev Gets the balance of the calling address.\n    *\n    * @return An uint256 representing the amount owned by the calling address\n    */\n    function balance()\n                            public \n                            view \n                            returns (uint256) \n    {\n        return balanceOf(msg.sender);\n    }\n\n    /**\n    * @dev Gets the balance of the specified address.\n    *\n    * @param owner The address to query the balance of\n    * @return An uint256 representing the amount owned by the passed address\n    */\n    function balanceOf\n                            (\n                                address owner\n                            ) \n                            public \n                            view \n                            returns (uint256) \n    {\n        return balances[owner];\n    }\n\n    /**\n    * @dev Transfers token for a specified address\n    *\n    * @param to The address to transfer to.\n    * @param value The amount to be transferred.\n    * @return A bool indicating if the transfer was successful.\n    */\n    function transfer\n                            (\n                                address to, \n                                uint256 value\n                            ) \n                            public \n                            requireContractRunStateActive\n                            returns (bool) \n    {\n        require(to != address(0));\n        require(to != msg.sender);\n        require(value <= balanceOf(msg.sender));                                         \n\n        balances[msg.sender] = balances[msg.sender].sub(value);\n        balances[to] = balances[to].add(value);\n        emit Transfer(msg.sender, to, value);\n        return true;\n    }\n\n    /**\n    * @dev Transfers tokens from one address to another\n    *\n    * @param from address The address which you want to send tokens from\n    * @param to address The address which you want to transfer to\n    * @param value uint256 the amount of tokens to be transferred\n    * @return A bool indicating if the transfer was successful.\n    */\n    function transferFrom\n                            (\n                                address from, \n                                address to, \n                                uint256 value\n                            ) \n                            public \n                            requireContractRunStateActive\n                            returns (bool) \n    {\n        require(from != address(0));\n        require(value <= allowed[from][msg.sender]);\n        require(value <= balanceOf(from));                                         \n        require(to != address(0));\n        require(from != to);\n\n        balances[from] = balances[from].sub(value);\n        balances[to] = balances[to].add(value);\n        allowed[from][msg.sender] = allowed[from][msg.sender].sub(value);\n        emit Transfer(from, to, value);\n        return true;\n    }\n\n    /**\n    * @dev Checks the amount of tokens that an owner allowed to a spender.\n    *\n    * @param owner address The address which owns the funds.\n    * @param spender address The address which will spend the funds.\n    * @return A uint256 specifying the amount of tokens still available for the spender.\n    */\n    function allowance\n                            (\n                                address owner, \n                                address spender\n                            ) \n                            public \n                            view \n                            returns (uint256) \n    {\n        return allowed[owner][spender];\n    }\n\n    /**\n    * @dev Approves the passed address to spend the specified amount of tokens \n    *      on behalf of msg.sender.\n    *\n    * @param spender The address which will spend the funds.\n    * @param value The amount of tokens to be spent.\n    * @return A bool indicating success (always returns true)\n    */\n    function approve\n                            (\n                                address spender, \n                                uint256 value\n                            ) \n                            public \n                            requireContractRunStateActive\n                            returns (bool) \n    {\n        allowed[msg.sender][spender] = value;\n        emit Approval(msg.sender, spender, value);\n        return true;\n    }\n\n\n\n//  Example functions that demonstrate how to call into this contract that holds state from\n//  another contract. Look in ~/interfaces/IDappState.sol for the interface definitions and\n//  in Dapp.sol for the actual calls into this contract.\n\n    /**\n    * @dev This is an EXAMPLE function that illustrates how functions in this contract can be\n    *      called securely from another contract to READ state data. Using the Contract Access \n    *      block will enable you to make your contract more secure by restricting which external\n    *      contracts can call functions in this contract.\n    */\n    function getContractOwner()\n                                external\n                                view\n                                returns(address)\n    {\n        return contractOwner;\n    }\n\n    uint256 counter;    // This is an example variable used only to demonstrate calling\n                        // a function that writes state from an external contract. It and\n                        // \"incrementCounter\" and \"getCounter\" functions can (should?) be deleted.\n    /**\n    * @dev This is an EXAMPLE function that illustrates how functions in this contract can be\n    *      called securely from another contract to WRITE state data. Using the Contract Access \n    *      block will enable you to make your contract more secure by restricting which external\n    *       contracts can call functions in this contract.\n    */\n    function incrementCounter\n                            (\n                                uint256 increment\n                            )\n                            external\n                            // Enable the modifier below if using the Contract Access feature\n                            // requireContractAuthorized\n    {\n        // NOTE: If another contract is calling this function, then msg.sender will be the address\n        //       of the calling contract and NOT the address of the user who initiated the\n        //       transaction. It is possible to get the address of the user, but this is \n        //       spoofable and therefore not recommended.\n        \n        require(increment > 0 && increment < 10, \"Invalid increment value\");\n        counter = counter.add(increment);   // Demonstration of using SafeMath to add to a number\n                                            // While verbose, using SafeMath everywhere that you\n                                            // add/sub/div/mul will ensure your contract does not\n                                            // have weird overflow bugs.\n    }\n\n    /**\n    * @dev This is an another EXAMPLE function that illustrates how functions in this contract can be\n    *      called securely from another contract to READ state data. Using the Contract Access \n    *      block will enable you to make your contract more secure by restricting which external\n    *      contracts can call functions in this contract.\n    */\n    function getCounter()\n                                external\n                                view\n                                returns(uint256)\n    {\n        return counter;\n    }\n\n}   \n\n\n",
  "sourcePath": "/home/danielo/Matic/upbeat-lukebul/packages/dapplib/contracts/DappState.sol",
  "compiler": {
    "name": "solc",
    "version": "0.5.17+commit.d19bba13.Emscripten.clang"
  },
  "schemaVersion": "3.3.3",
  "updatedAt": "2021-02-19T04:54:45.037Z",
  "networkType": "ethereum",
  "devdoc": {
    "methods": {
      "addContractAdmin(address)": {
        "details": "Adds a contract admin",
        "params": {
          "account": "Address of the admin to add"
        }
      },
      "allowance(address,address)": {
        "details": "Checks the amount of tokens that an owner allowed to a spender.",
        "params": {
          "owner": "address The address which owns the funds.",
          "spender": "address The address which will spend the funds."
        },
        "return": "A uint256 specifying the amount of tokens still available for the spender."
      },
      "approve(address,uint256)": {
        "details": "Approves the passed address to spend the specified amount of tokens      on behalf of msg.sender.",
        "params": {
          "spender": "The address which will spend the funds.",
          "value": "The amount of tokens to be spent."
        },
        "return": "A bool indicating success (always returns true)"
      },
      "balance()": {
        "details": "Gets the balance of the calling address.",
        "return": "An uint256 representing the amount owned by the calling address"
      },
      "balanceOf(address)": {
        "details": "Gets the balance of the specified address.",
        "params": {
          "owner": "The address to query the balance of"
        },
        "return": "An uint256 representing the amount owned by the passed address"
      },
      "getContractOwner()": {
        "details": "This is an EXAMPLE function that illustrates how functions in this contract can be     called securely from another contract to READ state data. Using the Contract Access      block will enable you to make your contract more secure by restricting which external     contracts can call functions in this contract."
      },
      "getCounter()": {
        "details": "This is an another EXAMPLE function that illustrates how functions in this contract can be     called securely from another contract to READ state data. Using the Contract Access      block will enable you to make your contract more secure by restricting which external     contracts can call functions in this contract."
      },
      "incrementCounter(uint256)": {
        "details": "This is an EXAMPLE function that illustrates how functions in this contract can be     called securely from another contract to WRITE state data. Using the Contract Access      block will enable you to make your contract more secure by restricting which external      contracts can call functions in this contract."
      },
      "isContractAdmin(address)": {
        "details": "Checks if an account is an admin",
        "params": {
          "account": "Address of the account to check"
        }
      },
      "isContractRunStateActive()": {
        "details": "Get active status of contract",
        "return": "A bool that is the current active status"
      },
      "removeContractAdmin(address)": {
        "details": "Removes a previously added admin",
        "params": {
          "account": "Address of the admin to remove"
        }
      },
      "removeLastContractAdmin(address)": {
        "details": "Removes the last admin fully decentralizing the contract",
        "params": {
          "account": "Address of the admin to remove"
        }
      },
      "setContractRunState(bool)": {
        "details": "Sets contract active status on/off    * When active status is off, all write transactions except for this one will fail"
      },
      "totalSupply()": {
        "details": "Total supply of tokens"
      },
      "transfer(address,uint256)": {
        "details": "Transfers token for a specified address",
        "params": {
          "to": "The address to transfer to.",
          "value": "The amount to be transferred."
        },
        "return": "A bool indicating if the transfer was successful."
      },
      "transferFrom(address,address,uint256)": {
        "details": "Transfers tokens from one address to another",
        "params": {
          "from": "address The address which you want to send tokens from",
          "to": "address The address which you want to transfer to",
          "value": "uint256 the amount of tokens to be transferred"
        },
        "return": "A bool indicating if the transfer was successful."
      }
    }
  },
  "userdoc": {
    "methods": {},
    "notice": "*****************************************************************************************"
  }
}