{
  "contractName": "PriceRangeStakeFactory",
  "abi": [
    {
      "inputs": [],
      "payable": false,
      "stateMutability": "nonpayable",
      "type": "constructor"
    },
    {
      "constant": true,
      "inputs": [
        {
          "internalType": "uint256",
          "name": "cnt",
          "type": "uint256"
        }
      ],
      "name": "getContractAddress",
      "outputs": [
        {
          "internalType": "address",
          "name": "",
          "type": "address"
        }
      ],
      "payable": false,
      "stateMutability": "view",
      "type": "function"
    }
  ],
  "bytecode": "0x608060405234801561001057600080fd5b5061001f61002460201b60201c565b61022e565b61005f7f203c2033336b0000000000000000000000000000000000000000000000000000600068017da3a04c7b3e000061016d60201b60201c565b6100a27f33336b202d2033346b000000000000000000000000000000000000000000000068017da3a04c7b3e000168018934388cc833120061016d60201b60201c565b6100e57f33346b202d2033356b000000000000000000000000000000000000000000000068018934388cc8331201680194c4d0cd50c2ee0061016d60201b60201c565b6101287f33356b202d2033366b0000000000000000000000000000000000000000000000680194c4d0cd50c2ee016801a055690d9db8000061016d60201b60201c565b61016b7f33366b203e2000000000000000000000000000000000000000000000000000006801a055690d9db8000168038cfebef75416000061016d60201b60201c565b565b600083838360405161017e90610221565b808481526020018381526020018281526020019350505050604051809103906000f0801580156101b2573d6000803e3d6000fd5b50905060008190806001815401808255809150509060018203906000526020600020016000909192909190916101000a81548173ffffffffffffffffffffffffffffffffffffffff021916908373ffffffffffffffffffffffffffffffffffffffff1602179055505050505050565b6108a58061034f83390190565b6101128061023d6000396000f3fe6080604052348015600f57600080fd5b506004361060285760003560e01c8063aefa7d9814602d575b600080fd5b605660048036036020811015604157600080fd5b81019080803590602001909291905050506098565b604051808273ffffffffffffffffffffffffffffffffffffffff1673ffffffffffffffffffffffffffffffffffffffff16815260200191505060405180910390f35b6000806000838154811060a757fe5b9060005260206000200160009054906101000a900473ffffffffffffffffffffffffffffffffffffffff1690508091505091905056fea265627a7a7231582032eddc42eed82cef0466d03a5f11bb22ac60959b68cc3e57f8566cc581ed42cb64736f6c634300051100326080604052600060065560006007556000600855600060095534801561002457600080fd5b506040516108a53803806108a58339818101604052606081101561004757600080fd5b81019080805190602001909291908051906020019092919080519060200190929190505050826001819055508160028190555080600381905550505050610812806100936000396000f3fe6080604052600436106100c25760003560e01c80639fb8bc101161007f578063e0a438fb11610059578063e0a438fb14610323578063eb8ae8141461034e578063f392d33a14610379578063f535d68c146103a7576100c2565b80639fb8bc1014610265578063a85a8d00146102ca578063d0bc1a88146102f5576100c2565b8063160a48b9146100c757806317d7de7c146100f257806327e235e31461011d5780632b3c0db3146101825780637e3ef7cd146101ad578063824aabe714610212575b600080fd5b3480156100d357600080fd5b506100dc6103d2565b6040518082815260200191505060405180910390f35b3480156100fe57600080fd5b506101076103dc565b6040518082815260200191505060405180910390f35b34801561012957600080fd5b5061016c6004803603602081101561014057600080fd5b81019080803573ffffffffffffffffffffffffffffffffffffffff1690602001909291905050506103e6565b6040518082815260200191505060405180910390f35b34801561018e57600080fd5b506101976103fe565b6040518082815260200191505060405180910390f35b3480156101b957600080fd5b506101fc600480360360208110156101d057600080fd5b81019080803573ffffffffffffffffffffffffffffffffffffffff169060200190929190505050610408565b6040518082815260200191505060405180910390f35b34801561021e57600080fd5b5061024b6004803603602081101561023557600080fd5b8101908080359060200190929190505050610451565b604051808215151515815260200191505060405180910390f35b34801561027157600080fd5b506102b46004803603602081101561028857600080fd5b81019080803573ffffffffffffffffffffffffffffffffffffffff16906020019092919050505061047e565b6040518082815260200191505060405180910390f35b3480156102d657600080fd5b506102df610496565b6040518082815260200191505060405180910390f35b6103216004803603602081101561030b57600080fd5b81019080803590602001909291905050506104a0565b005b34801561032f57600080fd5b506103386105d5565b6040518082815260200191505060405180910390f35b34801561035a57600080fd5b506103636105df565b6040518082815260200191505060405180910390f35b6103a56004803603602081101561038f57600080fd5b81019080803590602001909291905050506105e9565b005b3480156103b357600080fd5b506103bc6107d3565b6040518082815260200191505060405180910390f35b6000600654905090565b6000600154905090565b60046020528060005260406000206000915090505481565b6000600854905090565b6000600460008373ffffffffffffffffffffffffffffffffffffffff1673ffffffffffffffffffffffffffffffffffffffff168152602001908152602001600020549050919050565b60006002548211801561046657506003548211155b156104745760019050610479565b600090505b919050565b60056020528060005260406000206000915090505481565b6000600954905090565b6001600460003373ffffffffffffffffffffffffffffffffffffffff1673ffffffffffffffffffffffffffffffffffffffff1681526020019081526020016000205410156104fb576008600081548092919060010191905055505b806009819055506001600560003373ffffffffffffffffffffffffffffffffffffffff1673ffffffffffffffffffffffffffffffffffffffff16815260200190815260200160002060008282540192505081905550663ff2e795f50000600460003373ffffffffffffffffffffffffffffffffffffffff1673ffffffffffffffffffffffffffffffffffffffff1681526020019081526020016000206000828254019250508190555066470de4df82000060076000828254019250508190555066071afd498d000060066000828254019250508190555050565b6000600754905090565b6000600354905090565b60006103e882600560003373ffffffffffffffffffffffffffffffffffffffff1673ffffffffffffffffffffffffffffffffffffffff168152602001908152602001600020540202905080600660008282540392505081905550600081663ff2e795f50000600560003373ffffffffffffffffffffffffffffffffffffffff1673ffffffffffffffffffffffffffffffffffffffff1681526020019081526020016000205402019050663ff2e795f50000600560003373ffffffffffffffffffffffffffffffffffffffff1673ffffffffffffffffffffffffffffffffffffffff16815260200190815260200160002054026007600082825403925050819055506000600560003373ffffffffffffffffffffffffffffffffffffffff1673ffffffffffffffffffffffffffffffffffffffff168152602001908152602001600020819055506000600460003373ffffffffffffffffffffffffffffffffffffffff1673ffffffffffffffffffffffffffffffffffffffff16815260200190815260200160002081905550600860008154809291906001900391905055503373ffffffffffffffffffffffffffffffffffffffff166108fc829081150290604051600060405180830381858888f193505050501580156107cd573d6000803e3d6000fd5b50505050565b600060025490509056fea265627a7a72315820de17086b3e0c4fd784c18cc60a60848953cc7b00c63226eadefeecb6196019ef64736f6c63430005110032",
  "source": "pragma solidity >=0.4.22 <0.8.0;\n\nimport \"./PriceRangeStake.sol\";\nimport \"./PrizePool.sol\";\n\ncontract PriceRangeStakeFactory {\n\n    constructor() public {\n        createContracts();\n    }\n\n    address[] Contracts;\n\n    function createContract (bytes32 name, uint256 low, uint256 high) private {\n        address newContract = address( new PriceRangeStake(name,low,high) );\n        Contracts.push(newContract);\n    }\n\n    function createContracts() private \n    { \n        createContract (    \" < 33k\"    ,    0                      , 27500000000000000000 );\n        createContract (    \"33k - 34k\" ,    27500000000000000001   , 28333333333000000000 );\n        createContract (    \"34k - 35k\" ,    28333333333000000001   , 29166666667000000000 );\n        createContract (    \"35k - 36k\" ,    29166666667000000001   , 30000000000000000000 );\n        createContract (    \"36k > \"    ,    30000000000000000001   , 65500000000000000000 );\n    }\n\n    function getContractAddress(uint cnt) public view returns (address)\n    {\n        address out = Contracts[cnt];\n        return out;\n    }   \n   \n}\n\n\n\n",
  "sourcePath": "/home/danielo/Matic/upbeat-lukebul/packages/dapplib/contracts/PriceRangeStakeFactory.sol",
  "compiler": {
    "name": "solc",
    "version": "0.5.17+commit.d19bba13.Emscripten.clang"
  },
  "schemaVersion": "3.3.3",
  "updatedAt": "2021-02-02T06:16:37.931Z",
  "devdoc": {
    "methods": {}
  },
  "userdoc": {
    "methods": {}
  }
}