{
  "contractName": "PriceFeedConsumer",
  "abi": [
    {
      "inputs": [],
      "payable": false,
      "stateMutability": "nonpayable",
      "type": "constructor"
    },
    {
      "anonymous": false,
      "inputs": [
        {
          "indexed": true,
          "internalType": "bytes32",
          "name": "id",
          "type": "bytes32"
        }
      ],
      "name": "ChainlinkCancelled",
      "type": "event"
    },
    {
      "anonymous": false,
      "inputs": [
        {
          "indexed": true,
          "internalType": "bytes32",
          "name": "id",
          "type": "bytes32"
        }
      ],
      "name": "ChainlinkFulfilled",
      "type": "event"
    },
    {
      "anonymous": false,
      "inputs": [
        {
          "indexed": true,
          "internalType": "bytes32",
          "name": "id",
          "type": "bytes32"
        }
      ],
      "name": "ChainlinkRequested",
      "type": "event"
    },
    {
      "constant": true,
      "inputs": [],
      "name": "price",
      "outputs": [
        {
          "internalType": "uint256",
          "name": "",
          "type": "uint256"
        }
      ],
      "payable": false,
      "stateMutability": "view",
      "type": "function"
    },
    {
      "constant": false,
      "inputs": [],
      "name": "requestPrice",
      "outputs": [
        {
          "internalType": "bytes32",
          "name": "requestId",
          "type": "bytes32"
        }
      ],
      "payable": false,
      "stateMutability": "nonpayable",
      "type": "function"
    },
    {
      "constant": false,
      "inputs": [
        {
          "internalType": "bytes32",
          "name": "_requestId",
          "type": "bytes32"
        },
        {
          "internalType": "uint256",
          "name": "_price",
          "type": "uint256"
        }
      ],
      "name": "fulfill",
      "outputs": [],
      "payable": false,
      "stateMutability": "nonpayable",
      "type": "function"
    }
  ],
  "bytecode": "0x6080604052600160045534801561001557600080fd5b506100397370d1f773a9f81c852087b77f6ae6d3032b02d2ab6100c860201b60201c565b73bf87377162512f8098f78f055dfd2adac34cbb47600760006101000a81548173ffffffffffffffffffffffffffffffffffffffff021916908373ffffffffffffffffffffffffffffffffffffffff1602179055507f3662353765336665306439303462613438643133376233393335306337383932600881905550662386f26fc1000060098190555061010c565b80600260006101000a81548173ffffffffffffffffffffffffffffffffffffffff021916908373ffffffffffffffffffffffffffffffffffffffff16021790555050565b6111b88061011b6000396000f3fe608060405234801561001057600080fd5b50600436106100415760003560e01c80631604f9ea146100465780634357855e14610064578063a035b1fe1461009c575b600080fd5b61004e6100ba565b6040518082815260200191505060405180910390f35b61009a6004803603604081101561007a57600080fd5b8101908080359060200190929190803590602001909291905050506102e1565b005b6100a4610408565b6040518082815260200191505060405180910390f35b60006100c461101c565b6100d860085430634357855e60e01b61040e565b905061013c6040518060400160405280600381526020017f67657400000000000000000000000000000000000000000000000000000000008152506040518060a00160405280607b81526020016110e1607b91398361043f9092919063ffffffff16565b6060600260405190808252806020026020018201604052801561017357816020015b606081526020019060019003908161015e5790505b5090506040518060400160405280601f81526020017f5265616c74696d652043757272656e63792045786368616e6765205261746500815250816000815181106101b957fe5b60200260200101819052506040518060400160405280601081526020017f352e2045786368616e67652052617465000000000000000000000000000000008152508160018151811061020757fe5b602002602001018190525061025c6040518060400160405280600481526020017f706174680000000000000000000000000000000000000000000000000000000081525082846104729092919063ffffffff16565b6102ab6040518060400160405280600581526020017f74696d65730000000000000000000000000000000000000000000000000000008152506402540be400846104ef9092919063ffffffff16565b6102da600760009054906101000a900473ffffffffffffffffffffffffffffffffffffffff1683600954610522565b9250505090565b816005600082815260200190815260200160002060009054906101000a900473ffffffffffffffffffffffffffffffffffffffff1673ffffffffffffffffffffffffffffffffffffffff163373ffffffffffffffffffffffffffffffffffffffff1614610399576040517f08c379a000000000000000000000000000000000000000000000000000000000815260040180806020018281038252602881526020018061115c6028913960400191505060405180910390fd5b6005600082815260200190815260200160002060006101000a81549073ffffffffffffffffffffffffffffffffffffffff0219169055807f7cc135e0cebb02c3480ae5d74d377283180a2601f8f644edf7987b009316c63a60405160405180910390a281600681905550505050565b60065481565b61041661101c565b61041e61101c565b610435858585846107da909392919063ffffffff16565b9150509392505050565b61045682846080015161088a90919063ffffffff16565b61046d81846080015161088a90919063ffffffff16565b505050565b61048982846080015161088a90919063ffffffff16565b61049683608001516108af565b60008090505b81518110156104dc576104cf8282815181106104b457fe5b6020026020010151856080015161088a90919063ffffffff16565b808060010191505061049c565b506104ea83608001516108bd565b505050565b61050682846080015161088a90919063ffffffff16565b61051d8184608001516108cb90919063ffffffff16565b505050565b600030600454604051602001808373ffffffffffffffffffffffffffffffffffffffff1673ffffffffffffffffffffffffffffffffffffffff1660601b815260140182815260200192505050604051602081830303815290604052805190602001209050600454836060018181525050836005600083815260200190815260200160002060006101000a81548173ffffffffffffffffffffffffffffffffffffffff021916908373ffffffffffffffffffffffffffffffffffffffff160217905550807fb5e6e01e79f91267dc17b4e6314d5d4d03593d2ceee0fbb452b750bd70ea5af960405160405180910390a2600260009054906101000a900473ffffffffffffffffffffffffffffffffffffffff1673ffffffffffffffffffffffffffffffffffffffff16634000aea0858461065a8761096f565b6040518463ffffffff1660e01b8152600401808473ffffffffffffffffffffffffffffffffffffffff1673ffffffffffffffffffffffffffffffffffffffff16815260200183815260200180602001828103825283818151815260200191508051906020019080838360005b838110156106e15780820151818401526020810190506106c6565b50505050905090810190601f16801561070e5780820380516001836020036101000a031916815260200191505b50945050505050602060405180830381600087803b15801561072f57600080fd5b505af1158015610743573d6000803e3d6000fd5b505050506040513d602081101561075957600080fd5b81019080805190602001909291905050506107bf576040517f08c379a00000000000000000000000000000000000000000000000000000000081526004018080602001828103825260238152602001806110be6023913960400191505060405180910390fd5b60016004600082825401925050819055508090509392505050565b6107e261101c565b6107f28560800151610100610b76565b508385600001818152505082856020019073ffffffffffffffffffffffffffffffffffffffff16908173ffffffffffffffffffffffffffffffffffffffff16815250508185604001907bffffffffffffffffffffffffffffffffffffffffffffffffffffffff191690817bffffffffffffffffffffffffffffffffffffffffffffffffffffffff191681525050849050949350505050565b6108978260038351610bca565b6108aa8183610d0f90919063ffffffff16565b505050565b6108ba816004610d31565b50565b6108c8816007610d31565b50565b7fffffffffffffffffffffffffffffffffffffffffffffffff0000000000000000811215610902576108fd8282610d53565b61096b565b67ffffffffffffffff8113156109215761091c8282610dc1565b61096a565b6000811261093a5761093582600083610bca565b610969565b610968826001837fffffffffffffffffffffffffffffffffffffffffffffffffffffffffffffffff03610bca565b5b5b5b5050565b6060600360009054906101000a900473ffffffffffffffffffffffffffffffffffffffff1673ffffffffffffffffffffffffffffffffffffffff166340429946905060e01b60008084600001518560200151866040015187606001516001896080015160000151604051602401808973ffffffffffffffffffffffffffffffffffffffff1673ffffffffffffffffffffffffffffffffffffffff1681526020018881526020018781526020018673ffffffffffffffffffffffffffffffffffffffff1673ffffffffffffffffffffffffffffffffffffffff168152602001857bffffffffffffffffffffffffffffffffffffffffffffffffffffffff19167bffffffffffffffffffffffffffffffffffffffffffffffffffffffff1916815260200184815260200183815260200180602001828103825283818151815260200191508051906020019080838360005b83811015610ad9578082015181840152602081019050610abe565b50505050905090810190601f168015610b065780820380516001836020036101000a031916815260200191505b509950505050505050505050604051602081830303815290604052907bffffffffffffffffffffffffffffffffffffffffffffffffffffffff19166020820180517bffffffffffffffffffffffffffffffffffffffffffffffffffffffff83818316178352505050509050919050565b610b7e611089565b600060208381610b8a57fe5b0614610ba35760208281610b9a57fe5b06602003820191505b81836020018181525050604051808452600081528281016020016040525082905092915050565b60178111610bf757610bf18160058460ff16901b60ff161784610e0d90919063ffffffff16565b50610d0a565b60ff8111610c3957610c1c601860058460ff16901b1784610e0d90919063ffffffff16565b50610c3381600185610e2d9092919063ffffffff16565b50610d09565b61ffff8111610c7c57610c5f601960058460ff16901b1784610e0d90919063ffffffff16565b50610c7681600285610e2d9092919063ffffffff16565b50610d08565b63ffffffff8111610cc157610ca4601a60058460ff16901b1784610e0d90919063ffffffff16565b50610cbb81600485610e2d9092919063ffffffff16565b50610d07565b67ffffffffffffffff8111610d0657610ced601b60058460ff16901b1784610e0d90919063ffffffff16565b50610d0481600885610e2d9092919063ffffffff16565b505b5b5b5b5b505050565b610d17611089565b610d2983846000015151848551610e4f565b905092915050565b610d4e601f60058360ff16901b1783610e0d90919063ffffffff16565b505050565b610d7160036005600660ff16901b1783610e0d90919063ffffffff16565b50610dbd82827fffffffffffffffffffffffffffffffffffffffffffffffffffffffffffffffff0360405160200180828152602001915050604051602081830303815290604052610f08565b5050565b610ddf60026005600660ff16901b1783610e0d90919063ffffffff16565b50610e09828260405160200180828152602001915050604051602081830303815290604052610f08565b5050565b610e15611089565b610e258384600001515184610f2d565b905092915050565b610e35611089565b610e46848560000151518585610f7b565b90509392505050565b610e57611089565b8251821115610e6557600080fd5b84602001518285011115610e9057610e8f856002610e898860200151888701610fdc565b02610ff8565b5b600080865180518760208301019350808887011115610eaf5787860182525b60208701925050505b60208410610edb5780518252602082019150602081019050602084039350610eb8565b60006001856020036101000a03905080198251168184511681811785525050879350505050949350505050565b610f158260028351610bca565b610f288183610d0f90919063ffffffff16565b505050565b610f35611089565b83602001518310610f5257610f51846002866020015102610ff8565b5b8351805160208583010184815381861415610f6e576001820183525b5050508390509392505050565b610f83611089565b84602001518483011115610fa157610fa085600286850102610ff8565b5b60006001836101000a0390508551838682010185831982511617815281518588011115610fce5784870182525b505085915050949350505050565b600081831115610fee57829050610ff2565b8190505b92915050565b60608260000151905061100b8383610b76565b506110168382610d0f565b50505050565b6040518060a0016040528060008019168152602001600073ffffffffffffffffffffffffffffffffffffffff16815260200160007bffffffffffffffffffffffffffffffffffffffffffffffffffffffff19168152602001600081526020016110836110a3565b81525090565b604051806040016040528060608152602001600081525090565b60405180604001604052806060815260200160008152509056fe756e61626c6520746f207472616e73666572416e6443616c6c20746f206f7261636c6568747470733a2f2f7777772e616c70686176616e746167652e636f2f71756572793f66756e6374696f6e3d43555252454e43595f45584348414e47455f524154452666726f6d5f63757272656e63793d42544326746f5f63757272656e63793d555344266170696b65793d51443648344855344542475155413950536f75726365206d75737420626520746865206f7261636c65206f66207468652072657175657374a265627a7a723158209d1ce776e39062c11a8b006c7143901a0265e43e3120a493ab9efdd29e53a94864736f6c63430005110032",
  "source": "// SPDX-License-Identifier: UNLICENSED\n\npragma solidity >=0.4.22 <0.8.1;\n\n//import \"https://github.com/smartcontractkit/chainlink/blob/develop/evm-contracts/src/v0.6/ChainlinkClient.sol\";\n\nimport \"@chainlink/contracts/src/v0.5/ChainlinkClient.sol\";\n\ncontract PriceFeedConsumer is ChainlinkClient {\n  \n    uint256 public price;\n    \n    address private oracle;\n    bytes32 private jobId;\n    uint256 private fee;\n    \n    /**\n     * Network: Matic Mumbai Testnet\n     * Oracle: 0xBf87377162512f8098f78f055DFD2aDAc34cbB47\n     * Job ID: 6b57e3fe0d904ba48d137b39350c7892\n     * LINK address: 0x70d1F773A9f81C852087B77F6Ae6d3032B02D2AB\n     * Fee: 0.01 LINK\n     */\n    constructor() public {\n        setChainlinkToken(0x70d1F773A9f81C852087B77F6Ae6d3032B02D2AB);\n        oracle = 0xBf87377162512f8098f78f055DFD2aDAc34cbB47;\n        jobId = \"6b57e3fe0d904ba48d137b39350c7892\";\n        fee = 10 ** 16; // 0.01 LINK\n    }\n    \n    function requestPrice() public returns (bytes32 requestId) \n    {\n        Chainlink.Request memory request = buildChainlinkRequest(jobId, address(this), this.fulfill.selector);\n        request.add(\"get\", \"https://www.alphavantage.co/query?function=CURRENCY_EXCHANGE_RATE&from_currency=BTC&to_currency=USD&apikey=QD6H4HU4EBGQUA9P\");\n        string[] memory path = new string[](2);\n        path[0] = \"Realtime Currency Exchange Rate\";\n        path[1] = \"5. Exchange Rate\";\n        request.addStringArray(\"path\", path);\n        request.addInt(\"times\", 10000000000);\n        return sendChainlinkRequestTo(oracle, request, fee);\n    }\n    /**\n     * Receive the response in the form of uint256\n     */ \n    function fulfill(bytes32 _requestId, uint256 _price) public recordChainlinkFulfillment(_requestId)\n    {\n        price = _price;\n    }\n}\n\n\n",
  "sourcePath": "/home/danielo/Matic/upbeat-lukebul/packages/dapplib/contracts/PriceFeedConsumer.sol",
  "compiler": {
    "name": "solc",
    "version": "0.5.17+commit.d19bba13.Emscripten.clang"
  },
  "schemaVersion": "3.3.3",
  "updatedAt": "2021-02-19T05:00:02.218Z",
  "devdoc": {
    "methods": {}
  },
  "userdoc": {
    "methods": {
      "constructor": "Network: Matic Mumbai Testnet Oracle: 0xBf87377162512f8098f78f055DFD2aDAc34cbB47 Job ID: 6b57e3fe0d904ba48d137b39350c7892 LINK address: 0x70d1F773A9f81C852087B77F6Ae6d3032B02D2AB Fee: 0.01 LINK",
      "fulfill(bytes32,uint256)": {
        "notice": "Receive the response in the form of uint256"
      }
    }
  }
}