{
  "contractName": "PriceRangeStake",
  "abi": [
    {
      "inputs": [
        {
          "internalType": "bytes32",
          "name": "_name",
          "type": "bytes32"
        },
        {
          "internalType": "uint256",
          "name": "_lowPrice",
          "type": "uint256"
        },
        {
          "internalType": "uint256",
          "name": "_highPrice",
          "type": "uint256"
        }
      ],
      "payable": false,
      "stateMutability": "nonpayable",
      "type": "constructor"
    },
    {
      "constant": true,
      "inputs": [
        {
          "internalType": "address",
          "name": "",
          "type": "address"
        }
      ],
      "name": "balances",
      "outputs": [
        {
          "internalType": "uint256",
          "name": "",
          "type": "uint256"
        }
      ],
      "payable": false,
      "stateMutability": "view",
      "type": "function"
    },
    {
      "constant": true,
      "inputs": [
        {
          "internalType": "address",
          "name": "",
          "type": "address"
        }
      ],
      "name": "stakesize",
      "outputs": [
        {
          "internalType": "uint256",
          "name": "",
          "type": "uint256"
        }
      ],
      "payable": false,
      "stateMutability": "view",
      "type": "function"
    },
    {
      "constant": false,
      "inputs": [
        {
          "internalType": "uint256",
          "name": "_pingcnt",
          "type": "uint256"
        }
      ],
      "name": "addMoney",
      "outputs": [],
      "payable": true,
      "stateMutability": "payable",
      "type": "function"
    },
    {
      "constant": false,
      "inputs": [
        {
          "internalType": "uint256",
          "name": "pings",
          "type": "uint256"
        }
      ],
      "name": "removeMoney",
      "outputs": [],
      "payable": true,
      "stateMutability": "payable",
      "type": "function"
    },
    {
      "constant": true,
      "inputs": [],
      "name": "getping",
      "outputs": [
        {
          "internalType": "uint256",
          "name": "",
          "type": "uint256"
        }
      ],
      "payable": false,
      "stateMutability": "view",
      "type": "function"
    },
    {
      "constant": true,
      "inputs": [],
      "name": "getMoneyStored",
      "outputs": [
        {
          "internalType": "uint256",
          "name": "",
          "type": "uint256"
        }
      ],
      "payable": false,
      "stateMutability": "view",
      "type": "function"
    },
    {
      "constant": true,
      "inputs": [],
      "name": "getName",
      "outputs": [
        {
          "internalType": "bytes32",
          "name": "",
          "type": "bytes32"
        }
      ],
      "payable": false,
      "stateMutability": "view",
      "type": "function"
    },
    {
      "constant": true,
      "inputs": [
        {
          "internalType": "address",
          "name": "myAddress",
          "type": "address"
        }
      ],
      "name": "getMyBalance",
      "outputs": [
        {
          "internalType": "uint256",
          "name": "",
          "type": "uint256"
        }
      ],
      "payable": false,
      "stateMutability": "view",
      "type": "function"
    },
    {
      "constant": true,
      "inputs": [],
      "name": "getTotalHolders",
      "outputs": [
        {
          "internalType": "uint256",
          "name": "",
          "type": "uint256"
        }
      ],
      "payable": false,
      "stateMutability": "view",
      "type": "function"
    },
    {
      "constant": true,
      "inputs": [],
      "name": "getTotalPrizePool",
      "outputs": [
        {
          "internalType": "uint256",
          "name": "",
          "type": "uint256"
        }
      ],
      "payable": false,
      "stateMutability": "view",
      "type": "function"
    },
    {
      "constant": true,
      "inputs": [
        {
          "internalType": "uint256",
          "name": "price",
          "type": "uint256"
        }
      ],
      "name": "isCurrentStake",
      "outputs": [
        {
          "internalType": "bool",
          "name": "",
          "type": "bool"
        }
      ],
      "payable": false,
      "stateMutability": "view",
      "type": "function"
    },
    {
      "constant": true,
      "inputs": [],
      "name": "getlowPrice",
      "outputs": [
        {
          "internalType": "uint256",
          "name": "",
          "type": "uint256"
        }
      ],
      "payable": false,
      "stateMutability": "view",
      "type": "function"
    },
    {
      "constant": true,
      "inputs": [],
      "name": "getHighPrice",
      "outputs": [
        {
          "internalType": "uint256",
          "name": "",
          "type": "uint256"
        }
      ],
      "payable": false,
      "stateMutability": "view",
      "type": "function"
    }
  ],
  "bytecode": "0x6080604052600060065560006007556000600855600060095534801561002457600080fd5b506040516108a53803806108a58339818101604052606081101561004757600080fd5b81019080805190602001909291908051906020019092919080519060200190929190505050826001819055508160028190555080600381905550505050610812806100936000396000f3fe6080604052600436106100c25760003560e01c80639fb8bc101161007f578063e0a438fb11610059578063e0a438fb14610323578063eb8ae8141461034e578063f392d33a14610379578063f535d68c146103a7576100c2565b80639fb8bc1014610265578063a85a8d00146102ca578063d0bc1a88146102f5576100c2565b8063160a48b9146100c757806317d7de7c146100f257806327e235e31461011d5780632b3c0db3146101825780637e3ef7cd146101ad578063824aabe714610212575b600080fd5b3480156100d357600080fd5b506100dc6103d2565b6040518082815260200191505060405180910390f35b3480156100fe57600080fd5b506101076103dc565b6040518082815260200191505060405180910390f35b34801561012957600080fd5b5061016c6004803603602081101561014057600080fd5b81019080803573ffffffffffffffffffffffffffffffffffffffff1690602001909291905050506103e6565b6040518082815260200191505060405180910390f35b34801561018e57600080fd5b506101976103fe565b6040518082815260200191505060405180910390f35b3480156101b957600080fd5b506101fc600480360360208110156101d057600080fd5b81019080803573ffffffffffffffffffffffffffffffffffffffff169060200190929190505050610408565b6040518082815260200191505060405180910390f35b34801561021e57600080fd5b5061024b6004803603602081101561023557600080fd5b8101908080359060200190929190505050610451565b604051808215151515815260200191505060405180910390f35b34801561027157600080fd5b506102b46004803603602081101561028857600080fd5b81019080803573ffffffffffffffffffffffffffffffffffffffff16906020019092919050505061047e565b6040518082815260200191505060405180910390f35b3480156102d657600080fd5b506102df610496565b6040518082815260200191505060405180910390f35b6103216004803603602081101561030b57600080fd5b81019080803590602001909291905050506104a0565b005b34801561032f57600080fd5b506103386105d5565b6040518082815260200191505060405180910390f35b34801561035a57600080fd5b506103636105df565b6040518082815260200191505060405180910390f35b6103a56004803603602081101561038f57600080fd5b81019080803590602001909291905050506105e9565b005b3480156103b357600080fd5b506103bc6107d3565b6040518082815260200191505060405180910390f35b6000600654905090565b6000600154905090565b60046020528060005260406000206000915090505481565b6000600854905090565b6000600460008373ffffffffffffffffffffffffffffffffffffffff1673ffffffffffffffffffffffffffffffffffffffff168152602001908152602001600020549050919050565b60006002548211801561046657506003548211155b156104745760019050610479565b600090505b919050565b60056020528060005260406000206000915090505481565b6000600954905090565b6001600460003373ffffffffffffffffffffffffffffffffffffffff1673ffffffffffffffffffffffffffffffffffffffff1681526020019081526020016000205410156104fb576008600081548092919060010191905055505b806009819055506001600560003373ffffffffffffffffffffffffffffffffffffffff1673ffffffffffffffffffffffffffffffffffffffff16815260200190815260200160002060008282540192505081905550663ff2e795f50000600460003373ffffffffffffffffffffffffffffffffffffffff1673ffffffffffffffffffffffffffffffffffffffff1681526020019081526020016000206000828254019250508190555066470de4df82000060076000828254019250508190555066071afd498d000060066000828254019250508190555050565b6000600754905090565b6000600354905090565b60006103e882600560003373ffffffffffffffffffffffffffffffffffffffff1673ffffffffffffffffffffffffffffffffffffffff168152602001908152602001600020540202905080600660008282540392505081905550600081663ff2e795f50000600560003373ffffffffffffffffffffffffffffffffffffffff1673ffffffffffffffffffffffffffffffffffffffff1681526020019081526020016000205402019050663ff2e795f50000600560003373ffffffffffffffffffffffffffffffffffffffff1673ffffffffffffffffffffffffffffffffffffffff16815260200190815260200160002054026007600082825403925050819055506000600560003373ffffffffffffffffffffffffffffffffffffffff1673ffffffffffffffffffffffffffffffffffffffff168152602001908152602001600020819055506000600460003373ffffffffffffffffffffffffffffffffffffffff1673ffffffffffffffffffffffffffffffffffffffff16815260200190815260200160002081905550600860008154809291906001900391905055503373ffffffffffffffffffffffffffffffffffffffff166108fc829081150290604051600060405180830381858888f193505050501580156107cd573d6000803e3d6000fd5b50505050565b600060025490509056fea265627a7a72315820de17086b3e0c4fd784c18cc60a60848953cc7b00c63226eadefeecb6196019ef64736f6c63430005110032",
  "source": "pragma solidity >=0.4.22 <0.8.0;\n\ncontract PriceRangeStake {\n   \n    address owner;\n    bytes32 name;\n    uint256 lowPrice;\n    uint256 highPrice;\n    mapping(address => uint) public balances;\n    mapping(address => uint) public stakesize;\n  \n    constructor( bytes32 _name, uint256 _lowPrice, uint256 _highPrice ) public {\n\n        name        = _name;\n        lowPrice    = _lowPrice;\n        highPrice   = _highPrice;\n    }\n\n    uint256 prizePool = 0;\n    uint256 moneyStored = 0;\n    uint    holders = 0;\n    uint    pingcnt = 0;    \n\n    function addMoney(uint _pingcnt) payable public \n    {\n        if ( balances[msg.sender] < 1 )\n        {\n            holders++;\n        }\n        pingcnt = _pingcnt;\n        stakesize[msg.sender] += 1;\n        balances[msg.sender] += 18000000000000000;\n        moneyStored += 20000000000000000;\n        prizePool   += 2000000000000000;\n    }\n\n    function removeMoney( uint pings ) payable public\n    {\n        uint rewards = stakesize[msg.sender] * pings * 1000;\n        prizePool    -= rewards; \n        uint toPay   = ( stakesize[msg.sender] * 18000000000000000 ) + rewards;\n        moneyStored -= ( stakesize[msg.sender] * 18000000000000000 );\n        stakesize[msg.sender]   = 0;\n        balances[msg.sender]    = 0;\n        holders--;\n        msg.sender.transfer(toPay);\n    }\n\n    function getping() public view returns (uint256){\n        return pingcnt;\n    }\n\n\n    function getMoneyStored() public view returns (uint256){\n        return moneyStored;\n    }\n\n    function getName() public view returns (bytes32){\n        return name;\n    }\n\n    function getMyBalance(address myAddress) public view  returns (uint){\n        return balances[myAddress];\n    }\n\n    function getTotalHolders() public view  returns (uint){\n     \n        return holders;\n    }\n\n    function getTotalPrizePool() public view  returns (uint){\n     \n        return prizePool;\n    }\n\n    function isCurrentStake(uint256 price) public view returns (bool){\n        if ( price > lowPrice && price <= highPrice )        \n        {\n            return true;\n        }\n        else\n        {\n            return false;\n        }\n    }\n\n    function getlowPrice() public view returns (uint256){\n        return lowPrice;\n    }\n\n    function getHighPrice() public view returns (uint256){\n        return highPrice;\n    }\n}\n",
  "sourcePath": "/home/danielo/Matic/upbeat-lukebul/packages/dapplib/contracts/PriceRangeStake.sol",
  "compiler": {
    "name": "solc",
    "version": "0.5.17+commit.d19bba13.Emscripten.clang"
  },
  "schemaVersion": "3.3.3",
  "updatedAt": "2021-01-30T01:54:18.736Z",
  "devdoc": {
    "methods": {}
  },
  "userdoc": {
    "methods": {}
  }
}