{
  "contractName": "PrizePool",
  "abi": [
    {
      "anonymous": false,
      "inputs": [
        {
          "indexed": false,
          "internalType": "uint256",
          "name": "payout",
          "type": "uint256"
        }
      ],
      "name": "PayoutPotCreated",
      "type": "event"
    },
    {
      "constant": false,
      "inputs": [],
      "name": "addToPool",
      "outputs": [],
      "payable": true,
      "stateMutability": "payable",
      "type": "function"
    },
    {
      "constant": true,
      "inputs": [],
      "name": "getPoolTotal",
      "outputs": [
        {
          "internalType": "uint256",
          "name": "",
          "type": "uint256"
        }
      ],
      "payable": false,
      "stateMutability": "view",
      "type": "function"
    },
    {
      "constant": false,
      "inputs": [],
      "name": "AddToPot",
      "outputs": [],
      "payable": true,
      "stateMutability": "payable",
      "type": "function"
    }
  ],
  "bytecode": "0x60806040526000805534801561001457600080fd5b5060fd806100236000396000f3fe60806040526004361060305760003560e01c80638ed1fff5146035578063c07401f014605d578063d867bef8146065575b600080fd5b348015604057600080fd5b506047606d565b6040518082815260200191505060405180910390f35b60636076565b005b606b6087565b005b60008054905090565b346000808282540192505081905550565b7f3fd806cb93db22637c097d0651e7c5cb13ae1fe0c0dc66f9e0ee2aaaafb6a09d670de0b6b3a76400006040518082815260200191505060405180910390a156fea265627a7a723158200408de97371991bc3fdcf49407e4ed60b3c7620923935280bdc900bc9770818064736f6c63430005110032",
  "source": "pragma solidity >=0.4.22 <0.8.0;\n\ncontract PrizePool {\n    \n    uint256 totalPool = 0;\n\n    function addToPool() public payable\n    {\n        totalPool += msg.value;\n    }\n\n    function getPoolTotal() public view returns (uint256){\n        return totalPool;\n    }\n\n    event PayoutPotCreated( uint payout );\n    \n     function AddToPot() public payable {\n\n        emit PayoutPotCreated( 1 ether );\n    }\n}\n",
  "sourcePath": "/home/danielo/Matic/upbeat-lukebul/packages/dapplib/contracts/PrizePool.sol",
  "compiler": {
    "name": "solc",
    "version": "0.5.17+commit.d19bba13.Emscripten.clang"
  },
  "schemaVersion": "3.3.3",
  "updatedAt": "2021-01-30T01:54:18.739Z",
  "devdoc": {
    "methods": {}
  },
  "userdoc": {
    "methods": {}
  }
}