{
  "contractName": "PriceFeedConsumer",
  "abi": [
    {
      "inputs": [],
      "stateMutability": "nonpayable",
      "type": "constructor"
    },
    {
      "anonymous": false,
      "inputs": [
        {
          "indexed": true,
          "internalType": "bytes32",
          "name": "id",
          "type": "bytes32"
        }
      ],
      "name": "ChainlinkCancelled",
      "type": "event"
    },
    {
      "anonymous": false,
      "inputs": [
        {
          "indexed": true,
          "internalType": "bytes32",
          "name": "id",
          "type": "bytes32"
        }
      ],
      "name": "ChainlinkFulfilled",
      "type": "event"
    },
    {
      "anonymous": false,
      "inputs": [
        {
          "indexed": true,
          "internalType": "bytes32",
          "name": "id",
          "type": "bytes32"
        }
      ],
      "name": "ChainlinkRequested",
      "type": "event"
    },
    {
      "inputs": [],
      "name": "price",
      "outputs": [
        {
          "internalType": "uint256",
          "name": "",
          "type": "uint256"
        }
      ],
      "stateMutability": "view",
      "type": "function",
      "constant": true
    },
    {
      "inputs": [],
      "name": "requestPrice",
      "outputs": [
        {
          "internalType": "bytes32",
          "name": "requestId",
          "type": "bytes32"
        }
      ],
      "stateMutability": "nonpayable",
      "type": "function"
    },
    {
      "inputs": [
        {
          "internalType": "bytes32",
          "name": "_requestId",
          "type": "bytes32"
        },
        {
          "internalType": "uint256",
          "name": "_price",
          "type": "uint256"
        }
      ],
      "name": "fulfill",
      "outputs": [],
      "stateMutability": "nonpayable",
      "type": "function"
    }
  ],
  "bytecode": "0x6080604052600160045534801561001557600080fd5b506100397370d1f773a9f81c852087b77f6ae6d3032b02d2ab6100c860201b60201c565b73bf87377162512f8098f78f055dfd2adac34cbb47600760006101000a81548173ffffffffffffffffffffffffffffffffffffffff021916908373ffffffffffffffffffffffffffffffffffffffff1602179055507f3662353765336665306439303462613438643133376233393335306337383932600881905550662386f26fc1000060098190555061010c565b80600260006101000a81548173ffffffffffffffffffffffffffffffffffffffff021916908373ffffffffffffffffffffffffffffffffffffffff16021790555050565b6110fe8061011b6000396000f3fe608060405234801561001057600080fd5b50600436106100415760003560e01c80631604f9ea146100465780634357855e14610064578063a035b1fe1461009c575b600080fd5b61004e6100ba565b6040518082815260200191505060405180910390f35b61009a6004803603604081101561007a57600080fd5b8101908080359060200190929190803590602001909291905050506102f8565b005b6100a461041f565b6040518082815260200191505060405180910390f35b60006100c4610f7b565b6100d860085430634357855e60e01b610425565b905061013c6040518060400160405280600381526020017f67657400000000000000000000000000000000000000000000000000000000008152506040518060a00160405280607b8152602001611026607b9139836104569092919063ffffffff16565b6060600267ffffffffffffffff8111801561015657600080fd5b5060405190808252806020026020018201604052801561018a57816020015b60608152602001906001900390816101755790505b5090506040518060400160405280601f81526020017f5265616c74696d652043757272656e63792045786368616e6765205261746500815250816000815181106101d057fe5b60200260200101819052506040518060400160405280601081526020017f352e2045786368616e67652052617465000000000000000000000000000000008152508160018151811061021e57fe5b60200260200101819052506102736040518060400160405280600481526020017f706174680000000000000000000000000000000000000000000000000000000081525082846104899092919063ffffffff16565b6102c26040518060400160405280600581526020017f74696d65730000000000000000000000000000000000000000000000000000008152506402540be400846105039092919063ffffffff16565b6102f1600760009054906101000a900473ffffffffffffffffffffffffffffffffffffffff1683600954610536565b9250505090565b816005600082815260200190815260200160002060009054906101000a900473ffffffffffffffffffffffffffffffffffffffff1673ffffffffffffffffffffffffffffffffffffffff163373ffffffffffffffffffffffffffffffffffffffff16146103b0576040517f08c379a00000000000000000000000000000000000000000000000000000000081526004018080602001828103825260288152602001806110a16028913960400191505060405180910390fd5b6005600082815260200190815260200160002060006101000a81549073ffffffffffffffffffffffffffffffffffffffff0219169055807f7cc135e0cebb02c3480ae5d74d377283180a2601f8f644edf7987b009316c63a60405160405180910390a281600681905550505050565b60065481565b61042d610f7b565b610435610f7b565b61044c858585846107bf909392919063ffffffff16565b9150509392505050565b61046d82846080015161086f90919063ffffffff16565b61048481846080015161086f90919063ffffffff16565b505050565b6104a082846080015161086f90919063ffffffff16565b6104ad8360800151610894565b60005b81518110156104f0576104e38282815181106104c857fe5b6020026020010151856080015161086f90919063ffffffff16565b80806001019150506104b0565b506104fe83608001516108a2565b505050565b61051a82846080015161086f90919063ffffffff16565b6105318184608001516108b090919063ffffffff16565b505050565b600030600454604051602001808373ffffffffffffffffffffffffffffffffffffffff1660601b815260140182815260200192505050604051602081830303815290604052805190602001209050600454836060018181525050836005600083815260200190815260200160002060006101000a81548173ffffffffffffffffffffffffffffffffffffffff021916908373ffffffffffffffffffffffffffffffffffffffff160217905550807fb5e6e01e79f91267dc17b4e6314d5d4d03593d2ceee0fbb452b750bd70ea5af960405160405180910390a2600260009054906101000a900473ffffffffffffffffffffffffffffffffffffffff1673ffffffffffffffffffffffffffffffffffffffff16634000aea0858461065887610954565b6040518463ffffffff1660e01b8152600401808473ffffffffffffffffffffffffffffffffffffffff16815260200183815260200180602001828103825283818151815260200191508051906020019080838360005b838110156106c95780820151818401526020810190506106ae565b50505050905090810190601f1680156106f65780820380516001836020036101000a031916815260200191505b50945050505050602060405180830381600087803b15801561071757600080fd5b505af115801561072b573d6000803e3d6000fd5b505050506040513d602081101561074157600080fd5b81019080805190602001909291905050506107a7576040517f08c379a00000000000000000000000000000000000000000000000000000000081526004018080602001828103825260238152602001806110036023913960400191505060405180910390fd5b60016004600082825401925050819055509392505050565b6107c7610f7b565b6107d78560800151610100610ad5565b508385600001818152505082856020019073ffffffffffffffffffffffffffffffffffffffff16908173ffffffffffffffffffffffffffffffffffffffff16815250508185604001907bffffffffffffffffffffffffffffffffffffffffffffffffffffffff191690817bffffffffffffffffffffffffffffffffffffffffffffffffffffffff191681525050849050949350505050565b61087c8260038351610b29565b61088f8183610c6e90919063ffffffff16565b505050565b61089f816004610c90565b50565b6108ad816007610c90565b50565b7fffffffffffffffffffffffffffffffffffffffffffffffff00000000000000008112156108e7576108e28282610cb2565b610950565b67ffffffffffffffff811315610906576109018282610d20565b61094f565b6000811261091f5761091a82600083610b29565b61094e565b61094d826001837fffffffffffffffffffffffffffffffffffffffffffffffffffffffffffffffff03610b29565b5b5b5b5050565b6060634042994660e01b60008084600001518560200151866040015187606001516001896080015160000151604051602401808973ffffffffffffffffffffffffffffffffffffffff1681526020018881526020018781526020018673ffffffffffffffffffffffffffffffffffffffff168152602001857bffffffffffffffffffffffffffffffffffffffffffffffffffffffff1916815260200184815260200183815260200180602001828103825283818151815260200191508051906020019080838360005b83811015610a38578082015181840152602081019050610a1d565b50505050905090810190601f168015610a655780820380516001836020036101000a031916815260200191505b509950505050505050505050604051602081830303815290604052907bffffffffffffffffffffffffffffffffffffffffffffffffffffffff19166020820180517bffffffffffffffffffffffffffffffffffffffffffffffffffffffff83818316178352505050509050919050565b610add610fe8565b600060208381610ae957fe5b0614610b025760208281610af957fe5b06602003820191505b81836020018181525050604051808452600081528281016020016040525082905092915050565b60178111610b5657610b508160058460ff16901b60ff161784610d6c90919063ffffffff16565b50610c69565b60ff8111610b9857610b7b601860058460ff16901b1784610d6c90919063ffffffff16565b50610b9281600185610d8c9092919063ffffffff16565b50610c68565b61ffff8111610bdb57610bbe601960058460ff16901b1784610d6c90919063ffffffff16565b50610bd581600285610d8c9092919063ffffffff16565b50610c67565b63ffffffff8111610c2057610c03601a60058460ff16901b1784610d6c90919063ffffffff16565b50610c1a81600485610d8c9092919063ffffffff16565b50610c66565b67ffffffffffffffff8111610c6557610c4c601b60058460ff16901b1784610d6c90919063ffffffff16565b50610c6381600885610d8c9092919063ffffffff16565b505b5b5b5b5b505050565b610c76610fe8565b610c8883846000015151848551610dae565b905092915050565b610cad601f60058360ff16901b1783610d6c90919063ffffffff16565b505050565b610cd060036005600660ff16901b1783610d6c90919063ffffffff16565b50610d1c82827fffffffffffffffffffffffffffffffffffffffffffffffffffffffffffffffff0360405160200180828152602001915050604051602081830303815290604052610e67565b5050565b610d3e60026005600660ff16901b1783610d6c90919063ffffffff16565b50610d68828260405160200180828152602001915050604051602081830303815290604052610e67565b5050565b610d74610fe8565b610d848384600001515184610e8c565b905092915050565b610d94610fe8565b610da5848560000151518585610eda565b90509392505050565b610db6610fe8565b8251821115610dc457600080fd5b84602001518285011115610def57610dee856002610de88860200151888701610f3b565b02610f57565b5b600080865180518760208301019350808887011115610e0e5787860182525b60208701925050505b60208410610e3a5780518252602082019150602081019050602084039350610e17565b60006001856020036101000a03905080198251168184511681811785525050879350505050949350505050565b610e748260028351610b29565b610e878183610c6e90919063ffffffff16565b505050565b610e94610fe8565b83602001518310610eb157610eb0846002866020015102610f57565b5b8351805160208583010184815381861415610ecd576001820183525b5050508390509392505050565b610ee2610fe8565b84602001518483011115610f0057610eff85600286850102610f57565b5b60006001836101000a0390508551838682010185831982511617815281518588011115610f2d5784870182525b505085915050949350505050565b600081831115610f4d57829050610f51565b8190505b92915050565b606082600001519050610f6a8383610ad5565b50610f758382610c6e565b50505050565b6040518060a0016040528060008019168152602001600073ffffffffffffffffffffffffffffffffffffffff16815260200160007bffffffffffffffffffffffffffffffffffffffffffffffffffffffff1916815260200160008152602001610fe2610fe8565b81525090565b60405180604001604052806060815260200160008152509056fe756e61626c6520746f207472616e73666572416e6443616c6c20746f206f7261636c6568747470733a2f2f7777772e616c70686176616e746167652e636f2f71756572793f66756e6374696f6e3d43555252454e43595f45584348414e47455f524154452666726f6d5f63757272656e63793d42544326746f5f63757272656e63793d555344266170696b65793d51443648344855344542475155413950536f75726365206d75737420626520746865206f7261636c65206f66207468652072657175657374a2646970667358221220551c3c30c366e4fc09743af95ab05180c3caf6312487cd2e574cfe06fe6b86ee64736f6c634300060c0033",
  "immutableReferences": {},
  "source": "// SPDX-License-Identifier: UNLICENSED\n\npragma solidity >=0.4.22 <0.8.1;\n\n//import \"https://github.com/smartcontractkit/chainlink/blob/develop/evm-contracts/src/v0.6/ChainlinkClient.sol\";\n\nimport \"@chainlink/contracts/src/v0.6/ChainlinkClient.sol\";\n\ncontract PriceFeedConsumer is ChainlinkClient {\n  \n    uint256 public price;\n    \n    address private oracle;\n    bytes32 private jobId;\n    uint256 private fee;\n    \n    /**\n     * Network: Matic Mumbai Testnet\n     * Oracle: 0xBf87377162512f8098f78f055DFD2aDAc34cbB47\n     * Job ID: 6b57e3fe0d904ba48d137b39350c7892\n     * LINK address: 0x70d1F773A9f81C852087B77F6Ae6d3032B02D2AB\n     * Fee: 0.01 LINK\n     */\n    constructor() public {\n        setChainlinkToken(0x70d1F773A9f81C852087B77F6Ae6d3032B02D2AB);\n        oracle = 0xBf87377162512f8098f78f055DFD2aDAc34cbB47;\n        jobId = \"6b57e3fe0d904ba48d137b39350c7892\";\n        fee = 10 ** 16; // 0.01 LINK\n    }\n    \n    function requestPrice() public returns (bytes32 requestId) \n    {\n        Chainlink.Request memory request = buildChainlinkRequest(jobId, address(this), this.fulfill.selector);\n        request.add(\"get\", \"https://www.alphavantage.co/query?function=CURRENCY_EXCHANGE_RATE&from_currency=BTC&to_currency=USD&apikey=QD6H4HU4EBGQUA9P\");\n        string[] memory path = new string[](2);\n        path[0] = \"Realtime Currency Exchange Rate\";\n        path[1] = \"5. Exchange Rate\";\n        request.addStringArray(\"path\", path);\n        request.addInt(\"times\", 10000000000);\n        return sendChainlinkRequestTo(oracle, request, fee);\n    }\n    /**\n     * Receive the response in the form of uint256\n     */ \n    function fulfill(bytes32 _requestId, uint256 _price) public recordChainlinkFulfillment(_requestId)\n    {\n        price = _price;\n    }\n}\n\n\n",
  "sourcePath": "/home/danielo/Matic/PriceFeed/contracts/PriceFeedConsumer.sol",
  "compiler": {
    "name": "solc",
    "version": "0.6.12+commit.27d51765.Emscripten.clang"
  },
  "schemaVersion": "3.3.3",
  "updatedAt": "2021-02-19T05:18:13.186Z",
  "networkType": "ethereum",
  "devdoc": {
    "kind": "dev",
    "methods": {},
    "version": 1
  },
  "userdoc": {
    "kind": "user",
    "methods": {
      "constructor": "Network: Matic Mumbai Testnet Oracle: 0xBf87377162512f8098f78f055DFD2aDAc34cbB47 Job ID: 6b57e3fe0d904ba48d137b39350c7892 LINK address: 0x70d1F773A9f81C852087B77F6Ae6d3032B02D2AB Fee: 0.01 LINK",
      "fulfill(bytes32,uint256)": {
        "notice": "Receive the response in the form of uint256"
      }
    },
    "version": 1
  }
}