{
  "contractName": "PrizePoolGame",
  "abi": [
    {
      "inputs": [
        {
          "internalType": "uint256[]",
          "name": "priceRanges",
          "type": "uint256[]"
        }
      ],
      "payable": false,
      "stateMutability": "nonpayable",
      "type": "constructor"
    },
    {
      "constant": true,
      "inputs": [
        {
          "internalType": "address",
          "name": "",
          "type": "address"
        }
      ],
      "name": "balances",
      "outputs": [
        {
          "internalType": "uint256",
          "name": "",
          "type": "uint256"
        }
      ],
      "payable": false,
      "stateMutability": "view",
      "type": "function"
    },
    {
      "constant": true,
      "inputs": [
        {
          "internalType": "address",
          "name": "",
          "type": "address"
        }
      ],
      "name": "pingStart",
      "outputs": [
        {
          "internalType": "uint256",
          "name": "",
          "type": "uint256"
        }
      ],
      "payable": false,
      "stateMutability": "view",
      "type": "function"
    },
    {
      "constant": true,
      "inputs": [
        {
          "internalType": "uint256",
          "name": "",
          "type": "uint256"
        }
      ],
      "name": "priceRangesMap",
      "outputs": [
        {
          "internalType": "uint256",
          "name": "",
          "type": "uint256"
        }
      ],
      "payable": false,
      "stateMutability": "view",
      "type": "function"
    },
    {
      "constant": true,
      "inputs": [
        {
          "internalType": "uint256",
          "name": "",
          "type": "uint256"
        }
      ],
      "name": "stakeTotal",
      "outputs": [
        {
          "internalType": "uint256",
          "name": "",
          "type": "uint256"
        }
      ],
      "payable": false,
      "stateMutability": "view",
      "type": "function"
    },
    {
      "constant": true,
      "inputs": [
        {
          "internalType": "address",
          "name": "",
          "type": "address"
        }
      ],
      "name": "stakeindexes",
      "outputs": [
        {
          "internalType": "uint256",
          "name": "",
          "type": "uint256"
        }
      ],
      "payable": false,
      "stateMutability": "view",
      "type": "function"
    },
    {
      "constant": true,
      "inputs": [
        {
          "internalType": "address",
          "name": "",
          "type": "address"
        }
      ],
      "name": "stakesize",
      "outputs": [
        {
          "internalType": "uint256",
          "name": "",
          "type": "uint256"
        }
      ],
      "payable": false,
      "stateMutability": "view",
      "type": "function"
    },
    {
      "constant": true,
      "inputs": [
        {
          "internalType": "address",
          "name": "",
          "type": "address"
        }
      ],
      "name": "timeChosen",
      "outputs": [
        {
          "internalType": "uint256",
          "name": "",
          "type": "uint256"
        }
      ],
      "payable": false,
      "stateMutability": "view",
      "type": "function"
    },
    {
      "constant": false,
      "inputs": [
        {
          "internalType": "uint256",
          "name": "panelindex",
          "type": "uint256"
        },
        {
          "internalType": "uint256",
          "name": "_pingStart",
          "type": "uint256"
        }
      ],
      "name": "addMoney",
      "outputs": [],
      "payable": true,
      "stateMutability": "payable",
      "type": "function"
    },
    {
      "constant": false,
      "inputs": [
        {
          "internalType": "uint256",
          "name": "index",
          "type": "uint256"
        }
      ],
      "name": "payOut",
      "outputs": [],
      "payable": true,
      "stateMutability": "payable",
      "type": "function"
    },
    {
      "constant": true,
      "inputs": [
        {
          "internalType": "uint256",
          "name": "minute",
          "type": "uint256"
        }
      ],
      "name": "hasStaker",
      "outputs": [
        {
          "internalType": "bool",
          "name": "",
          "type": "bool"
        }
      ],
      "payable": false,
      "stateMutability": "view",
      "type": "function"
    },
    {
      "constant": true,
      "inputs": [
        {
          "internalType": "uint256",
          "name": "panelindex",
          "type": "uint256"
        }
      ],
      "name": "isMyStake",
      "outputs": [
        {
          "internalType": "bool",
          "name": "",
          "type": "bool"
        }
      ],
      "payable": false,
      "stateMutability": "view",
      "type": "function"
    },
    {
      "constant": true,
      "inputs": [],
      "name": "getName",
      "outputs": [
        {
          "internalType": "bytes32",
          "name": "",
          "type": "bytes32"
        }
      ],
      "payable": false,
      "stateMutability": "view",
      "type": "function"
    },
    {
      "constant": true,
      "inputs": [],
      "name": "getMyBalance",
      "outputs": [
        {
          "internalType": "uint256",
          "name": "",
          "type": "uint256"
        }
      ],
      "payable": false,
      "stateMutability": "view",
      "type": "function"
    },
    {
      "constant": true,
      "inputs": [
        {
          "internalType": "uint256",
          "name": "index",
          "type": "uint256"
        }
      ],
      "name": "getTotalStaked",
      "outputs": [
        {
          "internalType": "uint256",
          "name": "",
          "type": "uint256"
        }
      ],
      "payable": false,
      "stateMutability": "view",
      "type": "function"
    },
    {
      "constant": true,
      "inputs": [],
      "name": "getTotalPrizePool",
      "outputs": [
        {
          "internalType": "uint256",
          "name": "",
          "type": "uint256"
        }
      ],
      "payable": false,
      "stateMutability": "view",
      "type": "function"
    },
    {
      "constant": true,
      "inputs": [
        {
          "internalType": "uint256",
          "name": "price",
          "type": "uint256"
        },
        {
          "internalType": "uint256",
          "name": "stakeindex",
          "type": "uint256"
        }
      ],
      "name": "isCurrentStake",
      "outputs": [
        {
          "internalType": "bool",
          "name": "",
          "type": "bool"
        }
      ],
      "payable": false,
      "stateMutability": "view",
      "type": "function"
    },
    {
      "constant": true,
      "inputs": [],
      "name": "getping",
      "outputs": [
        {
          "internalType": "uint256",
          "name": "",
          "type": "uint256"
        }
      ],
      "payable": false,
      "stateMutability": "view",
      "type": "function"
    }
  ],
  "bytecode": "0x60806040526000600b55600060105534801561001a57600080fd5b50604051610b15380380610b158339818101604052602081101561003d57600080fd5b810190808051604051939291908464010000000082111561005d57600080fd5b8382019150602082018581111561007357600080fd5b825186602082028301116401000000008211171561009057600080fd5b8083526020830192505050908051906020019060200280838360005b838110156100c75780820151818401526020810190506100ac565b50505050905001604052505050336000806101000a81548173ffffffffffffffffffffffffffffffffffffffff021916908373ffffffffffffffffffffffffffffffffffffffff16021790555060008090505b600581101561015b5781818151811061012f57fe5b60200260200101516006600083815260200190815260200160002081905550808060010191505061011a565b50506109a98061016c6000396000f3fe6080604052600436106100fe5760003560e01c80634c738909116100955780639fb8bc10116100645780639fb8bc10146104ab578063a85a8d0014610510578063ad99dc051461053b578063bd95972c14610598578063da333ca6146105d0576100fe565b80634c7389091461036757806357db0210146103925780637059e7fb146103f7578063995787e014610446576100fe565b80632e0b48ec116100d15780632e0b48ec146102115780632f8899f31461027657806337dd296e146102c55780634ab8be4114610318576100fe565b80630fc4335014610103578063160a48b91461015657806317d7de7c1461018157806327e235e3146101ac575b600080fd5b34801561010f57600080fd5b5061013c6004803603602081101561012657600080fd5b81019080803590602001909291905050506105fe565b604051808215151515815260200191505060405180910390f35b34801561016257600080fd5b5061016b610632565b6040518082815260200191505060405180910390f35b34801561018d57600080fd5b5061019661063c565b6040518082815260200191505060405180910390f35b3480156101b857600080fd5b506101fb600480360360208110156101cf57600080fd5b81019080803573ffffffffffffffffffffffffffffffffffffffff169060200190929190505050610646565b6040518082815260200191505060405180910390f35b34801561021d57600080fd5b506102606004803603602081101561023457600080fd5b81019080803573ffffffffffffffffffffffffffffffffffffffff16906020019092919050505061065e565b6040518082815260200191505060405180910390f35b34801561028257600080fd5b506102af6004803603602081101561029957600080fd5b8101908080359060200190929190505050610676565b6040518082815260200191505060405180910390f35b3480156102d157600080fd5b506102fe600480360360208110156102e857600080fd5b8101908080359060200190929190505050610693565b604051808215151515815260200191505060405180910390f35b34801561032457600080fd5b506103516004803603602081101561033b57600080fd5b81019080803590602001909291905050506106ef565b6040518082815260200191505060405180910390f35b34801561037357600080fd5b5061037c610707565b6040518082815260200191505060405180910390f35b34801561039e57600080fd5b506103e1600480360360208110156103b557600080fd5b81019080803573ffffffffffffffffffffffffffffffffffffffff16906020019092919050505061074e565b6040518082815260200191505060405180910390f35b34801561040357600080fd5b506104306004803603602081101561041a57600080fd5b8101908080359060200190929190505050610766565b6040518082815260200191505060405180910390f35b34801561045257600080fd5b506104956004803603602081101561046957600080fd5b81019080803573ffffffffffffffffffffffffffffffffffffffff16906020019092919050505061077e565b6040518082815260200191505060405180910390f35b3480156104b757600080fd5b506104fa600480360360208110156104ce57600080fd5b81019080803573ffffffffffffffffffffffffffffffffffffffff169060200190929190505050610796565b6040518082815260200191505060405180910390f35b34801561051c57600080fd5b506105256107ae565b6040518082815260200191505060405180910390f35b34801561054757600080fd5b5061057e6004803603604081101561055e57600080fd5b8101908080359060200190929190803590602001909291905050506107f5565b604051808215151515815260200191505060405180910390f35b6105ce600480360360408110156105ae57600080fd5b81019080803590602001909291908035906020019092919050505061084f565b005b6105fc600480360360208110156105e657600080fd5b8101908080359060200190929190505050610971565b005b6000806009838154811061060e57fe5b90600052602060002001541115610628576001905061062d565b600090505b919050565b6000600b54905090565b6000600154905090565b600d6020528060005260406000206000915090505481565b600c6020528060005260406000206000915090505481565b6000600f6000838152602001908152602001600020549050919050565b600081600e60003373ffffffffffffffffffffffffffffffffffffffff1673ffffffffffffffffffffffffffffffffffffffff1681526020019081526020016000205414156106e557600190506106ea565b600090505b919050565b600f6020528060005260406000206000915090505481565b6000600d60003373ffffffffffffffffffffffffffffffffffffffff1673ffffffffffffffffffffffffffffffffffffffff16815260200190815260200160002054905090565b60056020528060005260406000206000915090505481565b60066020528060005260406000206000915090505481565b600e6020528060005260406000206000915090505481565b60046020528060005260406000206000915090505481565b6000600c60003373ffffffffffffffffffffffffffffffffffffffff1673ffffffffffffffffffffffffffffffffffffffff16815260200190815260200160002054905090565b6000600660008381526020019081526020016000205483101561084457600082111561083b57600660006001840381526020019081526020016000205483119050610849565b60019050610849565b600090505b92915050565b670de0b6b3a7640000600d60003373ffffffffffffffffffffffffffffffffffffffff1673ffffffffffffffffffffffffffffffffffffffff1681526020019081526020016000206000828254019250508190555081600e60003373ffffffffffffffffffffffffffffffffffffffff1673ffffffffffffffffffffffffffffffffffffffff16815260200190815260200160002081905550670de0b6b3a7640000600f600084815260200190815260200160002060008282540192505081905550670de0b6b3a764000060106000828254019250508190555080600c60003373ffffffffffffffffffffffffffffffffffffffff1673ffffffffffffffffffffffffffffffffffffffff168152602001908152602001600020819055505050565b5056fea265627a7a723158204db2738ad342d4a02b13cc32bad98bc1e46f7cba8cbffb23e1aa3b38ceeb978764736f6c63430005100032",
  "source": "pragma solidity >=0.4.22 <0.8.0;\n\ncontract PrizePoolGame {\n   \n    address owner;\n    bytes32 name;\n    uint256 startTime;\n    uint256 endTime;\n    \n    mapping(address => uint) public stakesize;\n    mapping(address => uint) public timeChosen;\n    mapping(uint => uint256) public priceRangesMap;\n    address[] holders;\n    address[] payouts;\n    \n    uint[] timeRangesCovered;\n    address prizePoolAddress;\n    uint256 prizePool = 0;\n\n    mapping(address => uint) public pingStart;\n    mapping(address => uint) public balances;\n    mapping(address => uint) public stakeindexes;\n    mapping(uint => uint256) public stakeTotal;\n\n    \n    constructor(uint256[] memory priceRanges) public {\n\n        owner       = msg.sender;\n        for (uint i = 0; i < 5; i++ )        \n        {\n            priceRangesMap[i] = priceRanges[i];\n        }\n     }\n\n    \n    uint256 moneyStored = 0;\n    \n    function addMoney( uint panelindex, uint _pingStart ) payable public \n    {\n        balances[msg.sender] += 1 ether;\n        stakeindexes[msg.sender] = panelindex;\n        stakeTotal[panelindex] += 1 ether;\n        moneyStored += 1 ether;\n        pingStart[msg.sender] = _pingStart;\n\n    }\n\n    function payOut( uint index ) payable public \n    {       \n\n    }\n  \n    function hasStaker( uint256 minute ) public view returns (bool)\n    {\n        if ( timeRangesCovered[minute] > 0 )\n        {\n                return true;\n        }\n        return false;\n    }\n\n    function isMyStake( uint256 panelindex ) public view returns (bool)\n    {\n\n      if ( stakeindexes[msg.sender] == panelindex )\n      {\n          return true;\n      }\n      return false;\n    }     \n\n\n    function getName() public view returns (bytes32){\n        return name;\n    }\n\n    function getMyBalance() public view  returns (uint){\n        return balances[msg.sender];\n    }\n\n    function getTotalStaked( uint index ) public view  returns (uint){\n     \n        return stakeTotal[index];\n    }\n\n    function getTotalPrizePool() public view  returns (uint){\n        return prizePool;\n    }\n\n    function isCurrentStake(uint256 price, uint stakeindex) public view returns (bool){\n        if ( price < priceRangesMap[stakeindex] )\n        {\n            if ( stakeindex > 0 )\n            {\n                return price > priceRangesMap[stakeindex-1];\n            }\n            return true;\n        }\n        return false;\n    }\n\n    function getping() public view returns(uint){\n        return pingStart[msg.sender];\n    }\n\n}\n\n\n\n",
  "sourcePath": "/home/danielo/Matic/btcgame/contracts/PrizePoolGame.sol",
  "compiler": {
    "name": "solc",
    "version": "0.5.16+commit.9c3226ce.Emscripten.clang"
  },
  "schemaVersion": "3.3.3",
  "updatedAt": "2021-02-28T11:11:04.990Z",
  "networkType": "ethereum",
  "devdoc": {
    "methods": {}
  },
  "userdoc": {
    "methods": {}
  }
}